:04000000B8310028EB
:1000060029004908003A03193D28F1017108073C07
:10001600031C2A282A00E71B132821008D13152804
:1000260021008D170630FD00FD0B172800000D1767
:100036000630FD00FD0B1D2800000D130630FD00E7
:10004600FD0B232800002A00E735F10A09282100C4
:100056008D170630FD00FD0B2E2800000D1706300B
:10006600FD00FD0B342800000D130630FD00FD0BCE
:060076003A28000008001A
:10007C0029004908003A03195C2821000D170630A5
:10008C00FD00FD0B472800008D170630FD00FD0B11
:10009C004D2800008D130630FD00FD0B5328000089
:0E00AC000D130630FD00FD0B59280000080062
:1000BA00290044082A006307E6003E202900420876
:1000CA002A00E70003202A00E70103202A00620829
:1000DA00B03EE70003202A0066080F3C031C79287B
:1000EA006608E400E5018A286608F200F236F2366C
:1000FA00F236F2367208E5007208F000F035F03593
:10010A00F035F03570086602E4006408E700032061
:10011A002A006508103EE70003203E202900420815
:10012A002A00E700032040302A00E70003200800E5
:10013A002000F801F9011030FC00710DF80DF90DDD
:10014A007408F8027508031C750FF9020318B4281D
:10015A007408F80775080318750FF9070310F00DEE
:08016A00F10DFC0BA2280800B6
:1001720020007008F100F0010830FC007108F40C56
:100182000318C728FC0BC028F10100340310CC2847
:10019200F40C0318F107F10CF00CFC0BC928080051
:1001A20029004908003A0319E92821008D13063075
:1001B200FD00FD0BDA2800000D170630FD00FD0BD7
:1001C200E02800008D170630FD00FD0BE628000038
:0201D200080023
:0801D400FA1FF21300300800CD
:1001DC00FB14FB1FF828FF30F300F200F100F000D5
:0801EC00FA0DF20CFF300800CF
:1001F4003E20290042082A00E700032040302A005C
:10020400E70003202A005908E2005808E3005D20B3
:100214002A00DD015C085D020318C0295D085A0745
:10022400840000305B3D85000008003A031D1C2952
:10023400DF0125295D085A07840000305B3D8500F5
:1002440020300002DF00DE015E08043C031CB829F4
:100254005F08F0000530F400B9202A005E08F007BA
:100264000030F13D063070078400AD30713D8500EB
:100274000008E0005908023A013003190030F10087
:100284005908043A013003190030F0007008F105F0
:100294005908063A013003190030F0007108F005DE
:1002A40003197D29E0195829E1135929E117E019A7
:1002B4005D2961135E29611760196229E1126329BE
:1002C400E11660196729611268296116E0186C2922
:1002D400E1116D29E115E018712961117229611587
:1002E40060187629E1107729E11460187B296110E0
:1002F4007C2961149D2960198129E1138229E11760
:1003040060198629611387296117E0188B29E11286
:100314008C29E116E0189029611291296116601860
:100324009529E1119629E11560189A2961119B29F3
:100334006115E11061106108E700032029004908F4
:10034400043A0130031D0030F1004908053A013038
:10035400031D0030F0007108F0040319B5292A00C8
:100364006108E70003202A00DE0A2629E7010320AA
:100374002A00E70103202A00DD0A0C29590AE200B9
:100384005808E3005D202A00DD015C085D020318C3
:10039400832A5D085A07840000305B3D850000080D
:1003A400003A031DD729DF01E0295D085A078400BC
:1003B40000305B3D850020300002DF00DE015E0876
:1003C400043C031C7B2A5F08F0000530F400B920CC
:1003D4002A005E08F0070030F13D06307007840003
:1003E400AD30713D85000008E0005908023A013043
:1003F40003190030F1005908043A013003190030A0
:10040400F0007008F1055908063A0130031900306C
:10041400F0007108F0050319382AE01B132AE113D0
:10042400142AE117E01B182A6113192A6117601BAB
:100434001D2AE1121E2AE116601B222A6112232AB8
:100444006116E01A272AE111282AE115E01A2C2A5C
:1004540061112D2A6115601A312AE110322AE11442
:10046400601A362A6110372A6114602A601B3C2AFC
:10047400E1133D2AE117601B412A6113422A6117E7
:10048400E01A462AE112472AE116E01A4B2A6112C1
:100494004C2A6116601A502AE111512AE115601A9A
:1004A400552A6111562A6115E0195A2AE1105B2A6E
:1004B400E114E0195F2A6110602A61146108E70001
:1004C400032029004908043A0130031D0030F100DB
:1004D4004908053A0130031D0030F0007108F004AA
:1004E4000319782A2A006108E70003202A00DE0A9B
:1004F400E129E70103202A00E70103202A00DD0A9D
:06050400C729D120080008
:10050A002A00D9012900CA010130C3002A0058086B
:10051A00D900D935D935D935D93529004C08031927
:10052A00992A08302A00D907290043080319A02A62
:10053A0004302A00D90729004A080319A72A0230D9
:10054A002A00D90729004B080319AD2A2A00D90A1B
:10055A003E20290042082A00E70003202A00590801
:10056A00E7000320D1200630FC003030FD00FD0BEF
:10057A00BC2AFC0BBC2A000004302A00D9023E2007
:10058A00290042082A00E70003202A005908E70048
:10059A000320D1200630FC003030FD00FD0BD32AA9
:0805AA00FC0BD32A000008003D
:0E05B200F201F101F001F801F3010030080040
:1005C0007B15FB1FEA2A0130F300F201F101F00173
:0805D000FA0DF20CFF300800E7
:1005D8002A00DC0105305C020318FC2A5C085A0773
:1005E800860000305B3D870020308100DC0AEE2A5F
:1005F8005C085A07860000305B3D87008101DC03F8
:100608005C085A07DD0000305B3DDE000A30F4006C
:10061800F5015808F0005908F1009D207808F0000D
:100628007908F1003030F0072A005D0886005E087E
:100638008700700881000A30F400F5015808F000BE
:100648005908F1009D2070082A00D8007108D900C7
:1006580000307106031D322B00307006031D352B48
:08066800372BDC03042B080012
:0A0670001D30FD00FD0B3A2B0800C1
:10067A00FB09FA09F909F809F80A0319F90A031929
:08068A00FA0A0319FB0A08003B
:100692002A00D401D5014E08D6004F08D700803079
:1006A2004F06F00080307002031D592B00304E02BD
:1006B2000318672B0130D4000030D5004E08003CEF
:1006C200D6004F08031C013ED701D7025608D800B6
:1006D2005708D9005008DA005108DB00EC22063036
:1006E200D2000030D3005308003C031D7A2B52087D
:1006F200003C0318952B5208500786005308513DC1
:10070200870001305202F0000030533BF1007008C4
:10071200500784007108513D8500000881000130B6
:10072200D2020030D33B742B500886005108870058
:1007320020308100540855040319BB2BD201D30188
:100742005208500784005308513D85000008203AA2
:10075200031DAF2BD20A0319D30AA12B0130D202F7
:100762000030D33B5208500786005308513D8700A2
:060772002D30810008009B
:1007780020002230FC00F801F901FA01FB01FC031A
:100788000319F12B0310FB0CFA0CF90CF80CF30C01
:10079800F20CF10CF00C031CC32BFC030319E32B24
:1007A8007408F80775080318750FF9077608031811
:1007B800760FFA0777080318770FFB07C72B74081B
:1007C800F80775080318750FF90776080318760FE8
:0C07D800FA0777080318770FFB070800EA
:1007E4007408F8027508031C750FF9027608031CD7
:1007F400760FFA027708031C770FFB02F30D07301C
:10080400FC00730DF80DF90DFA0DFB0D7408731C43
:10081400192CF8027508031C750FF9027608031CDD
:10082400760FFA027708031C770FFB02262CF807D1
:1008340075080318750FF90776080318760FFA0779
:1008440077080318770FFB07F30DFC0B032C720DCD
:10085400F80DF90DFA0DFB0D7408731C3F2CF8020A
:100864007508031C750FF9027608031C760FFA024B
:100874007708031C770FFB024C2CF8077508031844
:10088400750FF90776080318760FFA077708031827
:10089400770FFB07F20D0730FC00720DF80DF90D10
:1008A400FA0DFB0D7408721C652CF8027508031C04
:1008B400750FF9027608031C760FFA027708031CF9
:1008C400770FFB02722CF80775080318750FF907E8
:1008D40076080318760FFA0777080318770FFB07D3
:1008E400F20DFC0B4F2C710DF80DF90DFA0DFB0DEB
:1008F4007408721C8B2CF8027508031C750FF9021E
:100904007608031C760FFA027708031C770FFB02A4
:10091400982CF80775080318750FF907760803185B
:10092400760FFA0777080318770FFB07F10D0730E6
:10093400FC00710DF80DF90DFA0DFB0D7408711C16
:10094400B12CF8027508031C750FF9027608031C14
:10095400760FFA027708031C770FFB02BE2CF80708
:1009640075080318750FF90776080318760FFA0748
:1009740077080318770FFB07F10DFC0B9B2C700D08
:10098400F80DF90DFA0DFB0D7408711CD72CF80243
:100994007508031C750FF9027608031C760FFA021A
:1009A4007708031C770FFB02E42CF807750803187B
:1009B400750FF90776080318760FFA0777080318F6
:1009C400770FFB07F00D0730FC00700DF80DF90DE3
:1009D400FA0DFB0D7408701CFD2CF8027508031C3D
:1009E400750FF9027608031C760FFA027708031CC8
:1009F400770FFB020A2DF80775080318750FF9071E
:100A040076080318760FFA0777080318770FFB07A1
:100A1400F00DFC0BE72C70181D2D7408F8077508F1
:100A24000318750FF90776080318760FFA07770885
:080A34000318770FFB0708000F
:100A3C0029004908043A0130031D0030F10049082F
:100A4C00053A0130031D0030F0007108F004031961
:100A5C003C2D2A004F08D8004E08D9005008DA0067
:100A6C005108DB005208DC00FA20962D29004908B9
:100A7C00023A0130031D0030F1004908033A0130FD
:100A8C00031D0030F0007108F0040319622D0730CB
:100A9C00F0002A004F08F400B920043070072A0037
:100AAC00D8004E08D900D9355008DA005108DB00BF
:100ABC005208DC00FA20962D2900CB012A004E08A2
:100ACC00F000F035F0357008083ED80085222A0079
:100ADC004F08D800852201302900CB002A00D30111
:100AEC00520853020318962D530850078400003007
:100AFC00513D85000008F1007108D800D836D83671
:100B0C00D836D83685222A00530850078400003086
:100B1C00513D85000008D80085222A00D30A762D85
:020B2C000800BF
:100B2E00833021009D052A004E08F000F035F03587
:100B3E00700821009D0438239D149D1CA72DA42D03
:100B4E001C08F100F0011B08F0040030F10408004D
:100B5E000330FC009530FD00FD0BB32DFC0BB32DC7
:020B6E0008007D
:060B7000FB15FF30080038
:100B76007C18F12DFC18C22D7C19102EBB2DA1015D
:100B86007208031DE22D7108F2007008F100780862
:100B9600F000F801A1157208031DE22D7108F2009C
:100BA6007008F100F001A11121167208031DE22D53
:100BB6007108F200F101A11572080319042E21082B
:100BC600F302031D031C082E0310F21BF12DF80D72
:100BD600F00DF10DF20DF30BE82D082E7B1B701CAA
:100BE6000C2EF81F0C2EF00A0319F10A0319F20A4B
:100BF600031D0C2EF20CF10CF00CF30A0319102E47
:100C06000C2E0130FC00D922132E0230FC00E0220B
:100C1600132E0430FC00EA20132E0830FC00EE20D0
:040C260000000800C2
:100C2A00A1017208031D2A2E7108F2007008F10052
:100C3A00F001A1157208031D2A2E7108F200F101B4
:100C4A00A111211672080319382E2108F302031D77
:100C5A00031C3C2E0310F21B402EF00DF10DF20D79
:100C6A00F30B302E3C2E0130FC00D922432E0230E9
:0E0C7A00FC00E022432E0430FC00EA200800BB
:100C88007B14FB1F4F2EF201FA1FFF30F200F10018
:0A0C9800F000FA0DF20CFF30080026
:100CA200200072087606A100F801F90173087702A4
:100CB200031C732E7708FD007308F7007D08F3000C
:100CC2007608FD007208F6007D08F2007508FD0046
:100CD2007108F5007D08F1007408FD007008F40049
:100CE2007D08F00077080319EC2E7208FA00F2175B
:100CF200F61777087302F7000319A62E0830770259
:100D0200031C9C2EF7007408F9007508F40076089D
:100D1200F500F60108307702031C9C2EF7007408D8
:100D2200F9007508F400F50108307702031C9C2EC7
:100D32007A08F200EC2E77080319A62E0310F60C9F
:100D4200F50CF40CF90CF70B9F2EA11FB32EF90929
:100D5200F409F509F609F90A0319F40A0319F50A5F
:100D62000319F60A7908F80774080318740FF007D4
:100D720075080318750FF10776080318760FF20746
:100D8200A11BCC2E031CDC2EF20CF10CF00CF80C87
:100D9200F30FDC2EE82E0318E02EF809F009F10912
:100DA200F209F80A0319F00A0319F10A0319F20AFF
:100DB2008030FA06E42E0130FC00BB25EE2E023014
:100DC200FC00BB25EE2E0430FC001526EE2E08306A
:0E0DD200FC00EE20EE2E0030FC0000000800B9
:100DE0002A00CD014908F1000130F0007108031913
:100DF000FC2EF035FF3EF72E7008CC00470884002B
:100E00004808850070080005F10071080130031DD5
:100E10000030F0004B08F0060319282F4A08003C68
:100E20000318162FAF25AF25CA030E2F47088400DD
:100E3000480885004C080005F10071080130031DC9
:100E40000030F0004B08F0060319282FFF30CD00CA
:060E50004D08F00008004F
:100E5600710DF80DF90D7408F8027508031C750F6D
:100E6600F902F00DF10D0F30FC00710DF80DF90DC2
:100E76007408701C442FF8027508031C750FF902DC
:100E8600492FF80775080318750FF907F00DF10DCE
:100E9600FC0B382F7018552F7408F80775080318BF
:080EA600750FF90700000800B8
:100EAE002000FB017308031D77080319AD2F72088C
:100EBE007606FA007708F3077E30031C6A2FF302DA
:100ECE000318B02F6D2FF302031CB32F7208F80016
:100EDE007108FC007008FD00F817F6170310F201F8
:100EEE00F101F0011830A1007D1C872F7408F00766
:100EFE0075080318750FF10776080318760FF207B9
:100F0E00F20CF10CF00CF80CFC0CFD0C0310A10B08
:100F1E007B2FF21B972FF80DF00DF10DF20DF30351
:100F2E007B1B701CA92FF81FA92FF00A0319F10AB9
:100F3E000319F20A031DA92FF20CF10CF00CF30A9F
:100F4E000319B02FFA1FF2130030B52F0130D9223A
:100F5E00B52F0230EE20B52F0430E022000008003D
:100F6E0020007008F8007108F0007208F100730894
:100F7E00F200F301FB01FC019E30F300FA01F21FB7
:100F8E00D42FF809F009F109F209F80A0319F00A49
:100F9E000319F10A0319F20AFA170230FC00BB25F5
:020FAE00080039
:100FB00020007008F800FB01FC019E30F300FA01EC
:0E0FC000F201F101F0010230FC00BB25080037
:100FCE002A002B18ED2F22000E10EF2F22000E14E8
:100FDE00290057082A00C700290058082A00C8000F
:080FEE0088317E2580310800E6
:1010000064002800E101E2012600661C0C2828008B
:101010005F08E1076008E23D2600E61C142828006E
:101020006408E1076508E23D2600661D1C282800CB
:101030006A08E1076B08E23D2600E61D2428280027
:101040006808E1076908E23D2600661E2C28280092
:101050006608E1076708E23D2600E61E34282800FE
:101060006C08E1076D08E23D2600661F3F28290055
:101070002C082800E10729002D082800E23D28005F
:101080008030273AF000803062067002031D4A2843
:1010900061080F3C03186C2832306107F000003003
:1010A000623DF1007008E1007108E20070082A005A
:1010B000CE007108CF00BA30D0000430D1008031AA
:1010C0004923883129003B08B3003C08B4002E3086
:1010D000B5003D08B6009928280061082A00CE0016
:1010E000280062082A00CF00BA30D0000430D100B6
:1010F00080314923883129003C08203A031983288C
:101100003C08B30085283030B3002E30B4003D08D1
:10111000203A03198E283D08B50090283030B500DC
:101120003E08203A031997283E08B6009928303027
:10113000B6005908043A0130031D0030F100590887
:10114000053A0130031D0030F0007108F004031966
:10115000DF2826006808013A031DB22804302A005F
:10116000C700B5282A000630C7004708CE00103057
:10117000CF005830D0000030D1000230D200803192
:101180001E2588312A004708CE005830CF00553040
:10119000D0000030D1000230D20080311E258831CD
:1011A0002A004708CE002830CF00B330D0000430EA
:1011B000D1000430D20080311E2588315E292900FB
:1011C0005908023A0130031D0030F1005908033A72
:1011D0000130031D0030F0007108F00403192529C7
:1011E00026006808013A031DF8282A00C701FB28D9
:1011F0002A000130C7004708CE000930CF005B301D
:10120000D0000030D1000230D20080311E2588315C
:101210002A004708CE000F30CF006330D0000030E6
:10122000D1000230D20080311E2588312A004708C3
:10123000CE000B30CF00B330D0000430D1000430EA
:10124000D20080311E2588315E2929005908013AD3
:10125000031D5E2926006808013A031D32292A0071
:10126000C70135292A000130C7004708CE000930E0
:10127000CF006030D0000030D1000230D200803189
:101280001E2588312A004708CE000F30CF005E307F
:10129000D0000030D1000130D20080311E258831CD
:1012A0002A004708CE000B30CF00B330D000043006
:1012B000D1000430D20080311E258831640028001E
:1012C000E101E2012600651C6D29290022082800A1
:1012D000E107290023082800E23D2600E51C7829C3
:1012E000290020082800E107290021082800E23D04
:1012F0002600651D802928006E08E1076F08E23D81
:101300002600E51D8B29290024082800E107290073
:1013100025082800E23D2600651E962929002A0896
:101320002800E10729002B082800E23D2600E51EE1
:10133000A129290028082800E107290029082800F8
:10134000E23D2600651FAC29290026082800E10798
:10135000290027082800E23D280061082A00CE0065
:10136000280062082A00CF00BA30D0000430D10033
:1013700080314923883129003C08B3003D08B4007E
:101380003E08B5003F08B6005908043A0130031D75
:101390000030F1005908053A0130031D0030F0001B
:1013A0007108F00403190A2A26006808013A031D8F
:1013B000DD2906302A00C700E0292A000430C700D2
:1013C0004708CE001030CF00ED30D0000030D10003
:1013D0000230D20080311E2588312A004708CE0015
:1013E0005830CF00A030D0000230D1000230D200FF
:1013F00080311E2588312A004708CE002830CF00D2
:10140000B330D0000430D1000430D20080311E252A
:101410008831892A29005908023A0130031D003019
:10142000F1005908033A0130031D0030F000710843
:10143000F0040319502A26006808013A031D242AE3
:1014400001302A00C700262A2A00C7014708CE001B
:101450000930CF006C30D0000230D1000230D20011
:1014600080311E2588312A004708CE000F30CF007A
:101470006930D0000230D1000230D20080311E2508
:1014800088312A004708CE000B30CF00B330D0009F
:101490000430D1000430D20080311E258831892AE1
:1014A00029005908013A031D892A26006808013AD3
:1014B000031D5E2A01302A00C700602A2A00C701E6
:1014C0004708CE000930CF00A330D0000230D10051
:1014D0000230D20080311E2588312A004708CE0014
:1014E0000F30CF00A730D0000230D1000130D20041
:1014F00080311E2588312A004708CE000B30CF00EE
:10150000B330D0000430D1000430D20080311E2529
:06151000883164000800B0
:101516002000FB01FA01F9018030F800F10CF00C13
:10152600031C9E2A7408F90775080318750FFA0735
:101536000318FB0A0310F01FA62A7408FA07750899
:101546000318750FFB07FB0CFA0CF90CF80C031CBF
:10155600912A7B08F3007A08F2007908F1007808EE
:04156600F000080089
:10156A002000FB0173080319F12A7208FA00F21726
:10157A008E30F302F31FF42AF309F30A08307302D8
:10158A00031CD72AF300F10D7208F100F2010830AA
:10159A007302031CD72AF300F10DF1017308031D2E
:1015AA000310DF2A73080319DF2A0310F20CF10C67
:1015BA00F30BDA2A7B1B711CE92A031CE92AF10ABC
:1015CA000319F20AF21B002BFA1F032BF209F10985
:1015DA00F10A0319F20A032BF201F101032B7B141E
:1015EA00FB1F062BF201FA1F062BFF30F200F10057
:1015FA00FA0DF20C062B0130FC00082B0030FC001F
:10160A00082BFF30FC00FC0803190E2B80314426FE
:0C161A0088317108F0007208F10008002F
:101626007408003A031D2C2B7508003A031D2C2B59
:101636007608003A031D2C2B7708003A031D2C2B45
:10164600FF30F000FF30F1007F30F200FF30F30092
:10165600CE2B200077080319BA2B73080319BF2B6A
:10166600720876068039FA00F217F617A101720899
:10167600F8007108FC007008FD007408FD0275088A
:10168600031C750FFC027608031C760FF802F8019E
:10169600FC01FD01031C562B0310F20CF10CF00C9F
:1016A600F80C0130A1007708F302031C602B7E3092
:1016B6002107F3070318C42B652B7E302107F30798
:1016C600031CC92B1830FA07FD0DFC0DF80DF00DA3
:1016D600F10DF20DA10D7408F0027508031C750FCB
:1016E600F1027608031C760FF202760DA104211C86
:1016F6007E2B7D14892B7408F00775080318750F67
:10170600F10776080318760AF2077D10FA031F30F0
:101716007A05031D672B7B1B7D1CB02B0310F00D78
:10172600F10DF20DA10D7408F0027508031C750F7A
:10173600F1027608031C760FF202760D21040139B8
:10174600FD070318FC0A0319F80A031DB02BF80C51
:10175600FC0CFD0CF30A0319C42BFA1FF8137808C6
:10176600F2007C08F1007D08F0000030CD2B01303E
:101776008031B8258831CD2B02308031D92288318D
:10178600CD2B04308031EE208831CD2B08308031CE
:08179600E02288310000080088
:10179E00813022009700171BD52BD22B2A00CE01A9
:1017AE0080319725883170082A00C7007108C8005B
:1017BE008030033AF200803071067202031DE92B6D
:1017CE007008E83C031CF02B4708F0004808F100B5
:1017DE002F2C823022009700171BF62BF32B2A009A
:1017EE00CE0180319725883170082A00C700710814
:1017FE00C8008030033AF200803071067202031D79
:10180E000A2C7008E83C031C132C4708F00048080B
:10181E00F100F035F10D2F2C833022009700171BAD
:10182E00192C162C2A00CE0180319725883170088C
:10183E002A00C7007108C8007008F2007108F30092
:10184E00F235F30DF235F30D7208F0007308F10066
:02185E00080080
:10186000813022009700171B362C332C01302A00C0
:10187000CE0080319725883170082A00C700710892
:10188000C8008030033AF200803071067202031DF6
:101890004B2C7008E83C031C552C2700ED012A0056
:1018A0004708F0004808F100A82C82302200970079
:1018B000171B5B2C582C01302A00CE008031972555
:1018C000883170082A00C7007108C8008030033AC8
:1018D000F200803071067202031D702C7008E83C23
:1018E000031C7C2C2700ED012A004708F000480863
:1018F000F100F035F10DA82C833022009700171B62
:10190000822C7F2C01302A00CE008031972588312F
:1019100070082A00C7007108C8008030033AF2003E
:10192000803071067202031D972C7008E83C031882
:101930009D2C01302700ED009F2C2700ED012A008F
:101940004708F0004808F100F035F10DF035F10DD1
:0219500008008D
:101952007408003A031DC22C7508003A031DC22CFC
:101962007608003A031DC22C7708003A031DC22CE8
:10197200FF30F000FF30F100FF30F2007F30F30063
:101982005E2D2000FC01F71BFC0AFD01FB01FA01A0
:10199200F901F80173087204710470040319572DD8
:1019A20073087706A000A01BFD09F71FE32CF409BA
:1019B200F509F609F709F40A0319F50A0319F60AF3
:1019C2000319F70AF31FF02CF009F109F209F309E0
:1019D200F00A0319F10A0319F20A0319F30A730848
:1019E2007704A000A01B132D8031F2238831FC1B49
:1019F200302DFD1F572DF009F109F209F309F00A04
:101A02000319F10A0319F20A0319F30AF809F90989
:101A1200FA09FB09F80A0319F90A0319FA0A031960
:101A2200FB0A572DF71F2A2DF31B242D7308FB00E9
:101A32007208FA007108F9007008F800F301F20167
:101A4200F101F001FA2CF301F201F101F001F00AC7
:101A52000034F309F209F109F009FC17F52CF80A30
:101A62000319F90A0319FA0A0319FB0A740878021E
:101A7200031DFA2C75087902031DFA2C76087A02E6
:101A8200031DFA2C77087B02031DFA2CFB01FA01D5
:101A9200F901F801F00A0319F10A0319F20A03190C
:101AA200F30AF31FFA2CA0012016FF34A0017C1CBC
:0C1AB2005D2D80313D238831003E08008E
:101ABE0020007008F8007108F000F101F201F30146
:101ACE00FB01FC019630F300FA01F01F742DF809AA
:101ADE00F009F80A0319F00AFA177008F1007808ED
:0E1AEE00F000F801F201803115268831080061
:101AFC00A0302A00C9000F30CA00CB01CC01A030A5
:101B0C00F0000F30F1000030F2000030F300470815
:101B1C00F4004808F500F601F7018031BC23883148
:101B2C0070082A00C9007108CA007208CB0073083B
:101B3C00CC0000307302031DAD2D00307202031D6A
:101B4C00AD2D02307102031DAD2DB23070020318A1
:101B5C00B02DDF2DB230C9020230CA3B0030CB3B76
:101B6C00CC3B0530F00070080319C22DCC36CB0CE1
:101B7C00CA0CC90CFF3EBA2D4908F0004A08F10006
:101B8C004B08F2004C08F3000130C9020030CA3B8C
:101B9C00CB3BCC3B70087104720473040319DF2D2A
:101BAC000000000000000000000000000000000029
:041BBC00C22D08002E
:101BC00080313E208831290042082A00E700803118
:101BD0000320883180302A00E700803103208831DB
:101BE0002A004708E7008031032088318031D12066
:041BF0008831080030
:101BF4008030F00080302A0048067002031D042E55
:101C04004708503C031C092EF001F101DC2E803002
:101C1400F000803048067002031D122E4708AB3CCA
:101C2400031C192EF430C7070030C83DD82E80306D
:101C3400013AF000803048067002031D232E470845
:101C4400483C031C2A2EFE30C7070030C83DD82E5E
:101C54008030023AF000803048067002031D342EB2
:101C64004708463C031C3B2E1830C7070130C83DCB
:101C7400D82E8030033AF000803048067002031DED
:101C8400452E4708343C031C4C2E2930C70701302D
:101C9400C83DD82E8030043AF000803048067002E7
:101CA400031D562E47084C3C031C5D2E3630C707D7
:101CB4000130C83DD82E8030083AF0008030480604
:101CC4007002031D672E4708853C031C6E2EAE3040
:101CD400C7070130C83DD82E80300C3AF000803060
:101CE40048067002031D782E4708FA3C031C7F2E19
:101CF400E430C7070130C83DD82E8030123AF000D6
:101D0400803048067002031D892E47080F3C031CCF
:101D1400902E1230C7070230C83DD82E8030163AB4
:101D2400F000803048067002031D9A2E4708E63CF6
:101D3400031CA12E8830C7070230C83DD82E80303E
:101D44001B3AF000803048067002031DAB2E470892
:101D5400EA3C031CB22EE730C7070230C83DD82E38
:101D64008030213AF000803048067002031DBC2EFA
:101D74004708363C031CC32E2030C7070330C83D38
:101D8400D82E8030293AF000803048067002031DB6
:101D9400CD2E4708043C031CD42E4830C70703301B
:101DA400C83DD82E5C30C7070330C83D4708F00053
:061DB4004808F1000800E0
:101DBA002000FA017308031D7A147708031DFA1428
:101DCA007A080319282F033A0319F32E7A18F02EEA
:101DDA00F61F262F242FF21F242F262F7208803950
:101DEA00FA00F21376088039F6137A060319012FDE
:101DFA007A080319242F262F770873020319082F4C
:101E0A00031C1C2F202F7608720203190F2F031CA4
:101E1A001C2F202F750871020319162F031C1C2F63
:101E2A00202F740870020319282F0318202FFA088C
:101E3A000319262F242FFA080319242F262F0314F7
:0E1E4A00080003100800031403150800080028
:101E580026006E08003A031D6A2F2A002B18372F18
:101E680022008D11392F22008D152A00AB183F2F23
:101E780022000C11412F22000C152A002B19472F84
:101E880022000D12492F22000D162A00AB194F2FE0
:101E980022008C11512F22008C152A002B1A572F43
:101EA80022008D12592F22008D162A00AB1A5F2F9F
:101EB80022008C12612F22008C162A002B1B672F00
:101EC80022000C12692F22000C16A22F2A002B18B0
:101ED800702F22008D15722F22008D112A00AB1849
:101EE800782F22000C157A2F22000C112A002B19AA
:101EF800802F22000D16822F22000D122A00AB1906
:101F0800882F22008C158A2F22008C112A002B1A68
:101F1800902F22008D16922F22008D122A00AB1AC4
:101F2800982F22008C169A2F22008C122A002B1B25
:101F3800A02F22000C16A22F22000C1229005708ED
:101F48002A00C700290058082A00C8007E25080072
:101F580029004908013C0318B62FAF302A00C700F2
:101F6800E025C82F29004908013A031DC82F013070
:101F7800CC00CB012A00D8018031852288312A0083
:0A1F8800D80180318522883108005D
:101F92000D302A00C7000030C800C9011930CA003C
:101FA200CB018031F02688317008AB000D30C700BC
:101FB2000030C8000130C9001930CA00CB0180319D
:101FC200F02688317008AB040D30C7000030C8001D
:101FD2000230C9001930CA00CB018031F0268831A5
:101FE2002B08F0040319F82F01302700CA0008005B
:102000007408003A031D0D287508003A031D0D28B9
:10201000FF30F0007F30F10067282000FD01F9015A
:10202000F801710870040319003471087506FA008C
:10203000FA1BFD09FB01F51F2228F409F509F40A32
:102040000319F50AF11F2928F009F109F00A03190B
:10205000F10A71087504FA00FA1B3E2880312B271B
:1020600090317B185328FD1F0034F009F109F00A64
:102070000319F10AF809F909F80A0319F90A0034F1
:10208000F51F4F28F11B4B287108F9007008F80064
:10209000F101F0013328F101F001F00A0034F109F7
:1020A000F009FB0A3028F80A0319F90A74087802C3
:1020B000031D332875087902031D3328F901F8013F
:1020C000F00A0319F10AF11F33280000FF34080059
:1020D0002A002B186E2822008E13702822008E17DB
:1020E0002A00AB18762822008E11782822008E153F
:1020F0002A002B197E2822000E13802822000E179A
:102100002A00AB19862822000E11882822000E15FD
:102110002A002B1A8E2822008E12902822008E165A
:102120002A00AB1A962822008E10982822008E14BE
:102130002A002B1B9E2822000E12A02822000E1619
:10214000290057082A00C700290058082A00C8009B
:0821500088317E259031080062
:1021580000302A00B3000030B4004830B5008530A4
:10216800B600640020006808003A0130031D003002
:10217800F1006608013A0130031D0030F0007008D4
:10218800F10580302A002C06F00080307002031D13
:10219800CF280A302B020130031C0030F0007108F0
:1021A800F0050319952926006708003A031D9129AF
:1021B80029005908043A0130031D0030F10059087C
:1021C800053A0130031D0030F0007108F0040319CE
:1021D8001E2927004E08013A031D012904302A0050
:1021E800CE001030CF00A030D0000030D100083031
:1021F800D20080311E2590310F2904302A00CE00EC
:102208001030CF002030D0000130D1000830D2008B
:1022180080311E25903106302A00CE001030CF00C4
:102228004530D0000130D1000830D20080311E2561
:102238009031912929005908023A0130031D0030D4
:10224800F1005908033A0130031D0030F00071080D
:10225800F00403195E2927004E08013A031D42299C
:102268002A00CE010930CF003C30D0000130D10027
:102278000830D20080311E2590314F292A00CE0126
:102288000930CF003330D0000130D1000830D200FF
:1022980080311E25903101302A00CE000930CF0050
:1022A8004E30D0000130D1000830D20080311E25D8
:1022B8009031912929005908013A031D91292700D5
:1022C8004E08013A031D76292A00CE010930CF00B5
:1022D8006730D0000130D1000730D20080311E2590
:1022E800903183292A00CE010930CF005F30D00019
:1022F8000130D1000730D20080311E2590310130E5
:102308002A00CE000930CF005730D0000130D1006C
:102318000730D20080311E25903101302600E700B9
:102328009F2926006708013A031D9D29883100204E
:1023380090312600E70164002A002C0826006D066B
:10234800031DA9296C082A002B060319A02D2A00B1
:102358002B082600EC002A002C082600ED00270098
:102368004E08003A031D072A80302A002C06F00088
:1023780080307002031DC22964302B02031CE3293C
:1023880005302B07F00000302C3DF1007008AB0041
:102398007108AC007008CE007108CF00BA30D000C8
:1023A8000430D10080314923903129003C08B30022
:1023B8003D08B4003E08B5005730B600062A2A008A
:1023C8002B08CE002C08CF00BA30D0000430D10042
:1023D80080314923903129003E08203A0319F72912
:1023E8003E08B300F9293030B3002E30B4003F085E
:1023F800203A0319022A3F08B500042A3030B500F4
:102408005730B600522A80302A002C06F00080305F
:10241800033A7002031D122AE7302B020318292AF7
:102428002B08CE002C08CF00BA30D0000430D100E1
:1024380080314923903129003D08B3003E08B4009B
:102448003F08B5005730B600522A8030273AF000CE
:1024580080302A002C067002031D342A2B080F3CFA
:1024680003183D2A0F30AB002730AC00013027009D
:10247800ED002A002B08CE002C08CF00BA30D0007F
:102488000430D10080314923903129003C08B30041
:102498003D08B4003E08B5003F08B6005908043AA4
:1024A8000130031D0030F1005908053A0130031DC1
:1024B8000030F0007108F0040319702A2A00CE01D8
:1024C8004030CF00B330D0000430D1000430D20007
:1024D80080311E259031822A29005908003A0319B3
:1024E800822A2A00CE010430CF00B330D000043055
:1024F800D1000430D20080311E25903164002600BE
:102508006708013A031DA02D6608003A0130031D33
:102518000030F1006508003A0130031D0030F0007A
:102528007108F0050319A02A2A002D082900B00017
:102538002A002E082900B10029003008F0003108CF
:10254800F10088315F25903170082A00BF007108BA
:10255800C0007208C1007308C2000030F4000030E7
:10256800F5004830F6008530F7003F08F0004008D5
:10257800F1004108F2004208F3008831132390313A
:1025880070082A00BB007108BC007208BD007308FF
:10259800BE003F08F4004008F5004108F600420874
:1025A800F7000030F0000030F1004830F2008530CC
:1025B800F3008831132390312A003B08F4003C08CB
:1025C800F5003D08F6003E08F700803151269031AD
:1025D80070082A00BB007108BC007208BD007308AF
:1025E800BE0029003208F0008031D82790312A0037
:1025F8003B08F4003C08F5003D08F6003E08F700EB
:102608008031572790310030F4000030F500203039
:10261800F6008230F7008831132390311F30F40020
:102628008530F5006B30F6007B30F7008031572796
:1026380090310030F4000030F5000030F6007F30B3
:10264800F7008031512690317008F4007108F500C8
:102658007208F6007308F7000030F0000030F1004F
:102668000030F2007F30F300883113239031700876
:102678002A00C3007108C4007208C5007308C600A8
:102688004308B3004408B4004508B5004608B6003E
:102698002D08F0002E08F10088315F259031700870
:1026A8002A00BF007108C0007208C1007308C20088
:1026B8000030F4000030F5004830F6008530F700AF
:1026C8003F08F0004008F1004108F2004208F3001A
:1026D8008831132390310030F4000030F5000030C9
:1026E800F6008030F70080315126903170082A00BA
:1026F800BB007108BC007208BD007308BE003F082B
:10270800F4004008F5004108F6004208F7000030E0
:10271800F0000030F1004830F2008530F3008831D5
:10272800132390312A003B08F4003C08F5003D08CB
:10273800F6003E08F7008031512690317008F40009
:102748007108F5007208F6007308F7000030F00011
:102758000030F1000030F2008130F300883113239B
:10276800903170082A00B7007108B8007208B900E3
:102778007308BA000030F4000030F5000030F600AD
:102788007F30F7004308F0004408F1004508F200E4
:102798004608F3008831DD2690310130031C0030F3
:1027A800F00070080319E12B00302A00B300003054
:1027B800B4000030B5007F30B6002A000030F400C5
:1027C8000030F5000030F6007F30F7003708F000E1
:1027D8003808F1003908F2003A08F3008831DD269C
:1027E80090310130031C0030F00070080319052CEB
:1027F80000302A00B7000030B8000030B9007F3040
:10280800BA002A002B08F0002C08F10088315F2557
:1028180090312A003308F4003408F5003508F60032
:102828003608F7008031572790312A003708F4001E
:102838003808F5003908F6003A08F70080315727BC
:1028480090318831B522903170082A00AF007108A4
:10285800B0003308F0003408F1003508F2003608FB
:10286800F3003708F4003808F5003908F6003A088C
:10287800F7008031572790310030F4000030F50020
:102888004830F6008530F70080315727903188317D
:10289800B522903170082A00B1007108B20080306A
:1028A8007106F20080307202031D5C2C64307002E5
:1028B800031C622C6330B1000030B20027004E08C0
:1028C800003A031DB62C80302A003006F000803014
:1028D8007002031D712C64302F02031C922C0530EA
:1028E8002F07F0000030303DF1007008AF0071088C
:1028F800B0007008CE007108CF00BA30D0000430A4
:10290800D10080314923903129003C08B3003D08AB
:10291800B4003E08B5005730B600B52C2A002F0881
:10292800CE003008CF00BA30D0000430D10080315A
:102938004923903129003E08203A0319A62C3E0865
:10294800B300A82C3030B3002E30B4003F08203A32
:102958000319B12C3F08B500B32C3030B5005730FF
:10296800B600ED2C80302A003006F0008030033AA3
:102978007002031DC12CE7302F020318D82C2F0832
:10298800CE003008CF00BA30D0000430D1008031FA
:102998004923903129003D08B3003E08B4003F08A0
:1029A800B5005730B600ED2C2A002F08CE003008AD
:1029B800CF00BA30D0000430D100803149239031A3
:1029C80029003C08B3003D08B4003E08B5003F08A4
:1029D800B6005908043A0130031D0030F1005908C7
:1029E800053A0130031D0030F0007108F0040319A6
:1029F8000C2D04302A00CE004030CF00B330D00078
:102A08000430D1000430D20080311E2590313D2D94
:102A180029005908023A0130031D0030F100590815
:102A2800033A0130031D0030F0007108F004031967
:102A38002B2D2A00CE010D30CF00B330D00004304A
:102A4800D1000430D20080311E2590313D2D29005F
:102A58005908003A03193D2D2A00CE010C30CF0049
:102A6800B330D0000430D1000430D20080311E25AC
:102A780090312A003108CE003208CF00BA30D00099
:102A88000430D10080314923903129003E08B30039
:102A98003F08B4005908043A0130031D0030F10022
:102AA8005908053A0130031D0030F0007108F004A0
:102AB80003196D2D06302A00CE004C30CF00B330FC
:102AC800D0000430D1000230D20080311E25903170
:102AD800A02D29005908023A0130031D0030F100E9
:102AE8005908033A0130031D0030F0007108F00462
:102AF80003198D2D01302A00CE000E30CF00B330DF
:102B0800D0000430D1000230D20080311E2590312F
:102B1800A02D29005908013A031DA02D01302A00D3
:102B2800CE000D30CF00B330D0000430D1000230D9
:0C2B3800D20080311E259031640008009E
:102B440064002A002C0826006A06031DAC2D6908BF
:102B54002A002B060319492E2A002B082600E90017
:102B64002A002C082600EA0000302A002C06031D47
:102B7400BD2D00302B06031DFC2D29005908043AF5
:102B84000130031D0030F1005908053A0130031DDE
:102B94000030F0007108F0040319DF2D02302A0020
:102BA400CE004030CF006A30D0000030D100043075
:102BB400D20080311E259031F82D29005908003AA1
:102BC4000319F32D01302A00CE000430CF00E83081
:102BD400D0000030D1000430D20080311E25903165
:102BE400F82D29005908003A031DF82D2600E901A3
:102BF400EA01492E2A002B08CE002C08CF00BA3057
:102C0400D0000430D10080314923903129003D089F
:102C1400B3002E30B4003E08B5003F08B600590892
:102C2400043A0130031D0030F1005908053A01301F
:102C3400031D0030F0007108F0040319302E023037
:102C44002A00CE004030CF00B330D0000430D10091
:102C54000430D20080311E259031492E29005908B4
:102C6400003A0319442E01302A00CE000430CF006C
:102C7400B330D0000430D1000430D20080311E259E
:102C84009031492E29005908003A031D492E640049
:022C9400080036
:102C960064008831302490317008AB007108AC00B4
:102CA6000030AC1BFF30AD00AE008831CF23903131
:102CB6007008AF007108B0000030B01BFF30B100E3
:102CC600B20027004D08013A031D8A2E2A002B0860
:102CD600F0002C08F1000330F4000030F5008831D4
:102CE6008B22903170082A00C7007108C80088310D
:102CF600FA25903188315F25903170082A00B3009B
:102D06007108B4007208B5007308B600A72E2A0031
:102D16002B08F0002C08F1002D08F2002E08F30015
:102D26000330F400F501F601F7018031BC23903140
:102D36008031B727903170082A00B3007108B400BB
:102D46007208B5007308B60080303206F000803095
:102D56002E067002031DB92E2D083102031DB92E51
:102D66002C083002031DB92E2B082F02031CC22E7D
:102D7600E730AB000330AC00AD01AE010C2F2F08DD
:102D86002B07F00030082C3DF10031082D3DF200F4
:102D960032082E3DF3006430F400F501F601F70128
:102DA6008031BC2390312A002B08F4002C08F50052
:102DB6002D08F6002E08F7002F08F4023008F53B20
:102DC6003108F63B3208F73B8831A9249031700868
:102DD6002A00AB007108AC007208AD007308AE00A3
:102DE6008030F400803073067402031D042F7208CD
:102DF600003C031D042F7108033C031D042F7008BB
:102E0600E73C03180C2FE730AB000330AC00AD01F4
:102E1600AE0127004C08F0008031D82790312A00F7
:102E26003308F4003408F5003508F6003608F700D4
:102E36008031572790310030F4000030F5007A30A9
:102E4600F6008830F70088311323903170082A0085
:102E5600B3007108B4007208B5007308B600F43008
:102E6600F400FD30F5003430F6007F30F70088318D
:102E76001323903170082A00B3007108B400720859
:102E8600B5007308B60027004E08013A031D742FDB
:102E96002A003308F0003408F1003508F20036083D
:102EA600F3003308F4003408F5003508F600360858
:102EB600F7008031572790310030F4000030F500DC
:102EC6004830F6008430F7008831132390317008BB
:102ED6002A00B3007108B4007208B5007308B60082
:102EE6009C2F2A003308F0003408F1003508F20060
:102EF6003608F3003308F4003408F5003508F60008
:102F06003608F7008031572790310030F400003042
:102F1600F5002030F6008130F70088311323903118
:102F260070082A00B3007108B4007208B50073086F
:102F3600B6003308F0003408F1003508F200360810
:102F4600F3000030F4000030F5000030F6007E306B
:102F5600F70080315126903170082A00B3007108BD
:102F6600B4007208B5007308B6008831B5229031F6
:102F760070082900D5007108D60080302A002E0678
:102F8600F00080307002031DD22F00302D02031D89
:102F9600D22F00302C02031DD22F64302B020318CF
:102FA600DA2FE7302900D3000330D400E22F2A00BD
:102FB6002B082900D3002A002C082900D400080079
:102FC6002600E601E5012A00AB0188312C27903165
:102FD600260065082A00AB006820290057082A0049
:102FE600C700290058082A00C80088317E2590317C
:022FF6000800D1
:103000002A00A901AA01643029005A022A00A4005A
:10301000003029005B3B2A00A5002900D501D6011C
:10302000640027004F08003A0130031D0030F10012
:103030004B08013A0130031D0030F0007108F00523
:103040000319662890314B26983180305606F000DF
:1030500080307002031D2E280A305502031C65289B
:10306000260066082A00AB0088312C2798312600FC
:1030700065082A00AB009031682098312600680866
:103080002A00AB008031E727983101302700CF00BC
:103090008831AC27983126006F08F0008031D8279E
:1030A000983127004608F4004708F5004808F60064
:1030B0004908F7008031572798318831B522983177
:1030C00070082700C4007108C5001F2C78302A0042
:1030D000A600A301260823020318CF2820008D187C
:1030E00073287614742876100D197828031479281B
:1030F000031076187F2803187F28F6108028F6140E
:1031000020000D188528031486280310031C8D2821
:103110002800E31C8D2876148E287610F618942843
:1031200076189428031095280314031CA1288831CD
:10313000C927983127004A08013A031DA128CA016E
:103140001F2C90314B26983180302A002A06F0003F
:103150008030290056067002031DB12855082A0048
:1031600029020318C328290055082A00A9002900AC
:1031700056082A00AA00290053082A00A70029009F
:1031800054082A00A8001030FC009430FD002A00EA
:10319000FD0BC728FC0BC7280000A30A6A2864009F
:1031A00080302A06F00080307002031DD928643078
:1031B0002902031CF92805302907F00000302A3DB8
:1031C000F1000A30F4000030F50090310020983111
:1031D00070082A00A9007108AA000A30F400003023
:1031E000F50088318B22983170082A00A9007108F7
:1031F000AA0029082700D0002A002A082700D100A9
:1032000080302A002A06F00080307002031D0A294F
:103210000A30290203180E29A701A8012708AB00CC
:103220002808AC009031A225983180302700510643
:10323000F00080307002031D1F290A305002031C69
:10324000632926006F08003C03183F296F08F0002F
:103250008031D827983127004608F4004708F50048
:103260004808F6004908F70080315727983188311F
:10327000B522983170082700C4007108C5002700E6
:103280004F08003A031D63294B08013A031D5D29CD
:10329000260066082A00AB0088312C2798312600CA
:1032A00065082A00AB009031682098312600680834
:1032B0002A00AB008031E727983101302700CF008A
:1032C0008831AC27983180302A002806F000803001
:1032D00029005B067002031D70295A082A00270284
:1032E0000130031C0030F000700826006B05F5006B
:1032F00080306406F30080302A0028067302031D24
:1033000084292708260063022600013003180030B4
:10331000F30063082A002702F100260064082A004F
:10332000283BF20080302506F000803072067002E3
:10333000031D9C2971082402013003180030F0009D
:1033400070087305F40080302806F30080302600F2
:1033500064067302031DAF2963082A0027022A00AE
:10336000013003180030F300270826006302F10043
:103370002A0028082600643BF20080302A00250637
:10338000F000803072067002031DC8297108240203
:10339000013003180030F0007308F0057008740461
:1033A000F10026006408033A031DD829E7306306BC
:1033B0000130031D0030F0007108F0047508F005BD
:1033C0000319E52901302700EE0020008D18EA29B5
:1033D0007614EB2976100D19EF290314F029031048
:1033E0007618F6290318F629F610F729F6142000A6
:1033F0000D18FC290314FD290310031C042A2800BE
:10340000E31C042A7614052A7610F6180B2A76187F
:103410000B2A03100C2A0314031C182A8831C9270D
:10342000983127004A08013A031D182ACA011F2CA7
:10343000270050082A00AB00270051082A00AC00E2
:103440002708AD002808AE009031AC20983120004C
:103450008D182C2A76142D2A76100D19312A031472
:10346000322A03107618382A0318382AF610392A17
:10347000F61420000D183E2A03143F2A0310031CE3
:10348000462A2800E31C462A7614472A7610F618A6
:103490004D2A76184D2A03104E2A0314031C5A2A6B
:1034A0008831C927983127004A08013A031D5A2A52
:1034B000CA011F2C270064006D08013A031D1F2C50
:1034C00029005908043A0130031D0030F100590861
:1034D000053A0130031D0030F0007108F0040319B3
:1034E000432B02302A00CE001030CF003B30D000FA
:1034F0000430D1000830D20080311E2598310330CD
:10350000FB000830FC007730FD00FD0B852AFC0B2A
:10351000852AFB0B852A02302A00CE001030CF000E
:103520004D30D0000430D1000830D20080311E254B
:1035300098310B30FB002630FC005D30FD00FD0BA8
:103540009F2AFC0B9F2AFB0B9F2A000000006400AF
:1035500002302A00CE001030CF004430D0000430BA
:10356000D1000830D20080311E2598310730FB0091
:103570001730FC006A30FD00FD0BBC2AFC0BBC2A96
:10358000FB0BBC2A0000640002302A00CE00103081
:10359000CF003230D0000430D1000830D20080316A
:1035A0001E2598310B30FB002630FC005D30FD00FD
:1035B000FD0BD82AFC0BD82AFB0BD82A00000000F0
:1035C000640002302A00CE001030CF00DB30D00083
:1035D0000330D1000830D20080311E2598310730E9
:1035E000FB001730FC006A30FD00FD0BF52AFC0BD8
:1035F000F52AFB0BF52A0000640002302A00CE00F9
:103600001030CF00D230D0000330D1000830D200CB
:1036100080311E2598310B30FB002630FC005D30D8
:10362000FD00FD0B112BFC0B112BFB0B112B0000D4
:103630000000640002302A00CE001030CF00E430D9
:10364000D0000330D1000830D20080311E259831DF
:103650000330FB000830FC007730FD00FD0B2E2B03
:10366000FC0B2E2BFB0B2E2B02302A00CE00103031
:10367000CF002930D0000430D1000830D200803192
:103680001E259831112C29005908003A0319112CD4
:1036900001302A00CE00CF012030D0000430D1000C
:1036A0000830D20080311E2598310330FB000830ED
:1036B000FC007730FD00FD0B5B2BFC0B5B2BFB0B49
:1036C0005B2B01302A00CE00CF01BB30D000003090
:1036D000D1000830D20080311E2598310B30FB001C
:1036E0002630FC005D30FD00FD0B742BFC0B742BB1
:1036F000FB0B742B00000000640001302A00CE0098
:10370000CF01B230D0000030D1000830D20080317B
:103710001E2598310730FB001730FC006A30FD0091
:10372000FD0B902BFC0B902BFB0B902B00006400EF
:1037300001302A00CE00CF01A930D0000030D100E6
:103740000830D20080311E2598310B30FB00263026
:10375000FC005D30FD00FD0BAB2BFC0BAB2BFB0B22
:10376000AB2B00000000640001302A00CE00CF0126
:10377000C430D0000030D1000830D20080311E2586
:1037800098310730FB001730FC006A30FD00FD0B5C
:10379000C72BFC0BC72BFB0BC72B000064000130B1
:1037A0002A00CE00CF01DF30D0000030D100083039
:1037B000D20080311E2598310B30FB002630FC00F2
:1037C0005D30FD00FD0BE22BFC0BE22BFB0BE22B33
:1037D00000000000640001302A00CE00CF01D63086
:1037E000D0000030D1000830D20080311E25983141
:1037F0000330FB000830FC007730FD00FD0BFE2B92
:10380000FC0BFE2BFB0BFE2B01302A00CE00CF0160
:10381000CD30D0000030D1000830D20080311E25DC
:103820009831640010302600E9002730EA002A00B1
:103830002708AB002808AC009031A2259831080079
:103840002A0023082300910092012A002408230063
:1038500093001513951315150B08F0008B135530B5
:103860009600AA3096009514F01B382C8B13392C37
:0C3870008B171511951C3D2C3A2C0800FC
:10387C002A00A101A2019031E327983101302600E2
:10388C00E80001302A00AB008031E7279831FF3087
:10389C00A300A4012024FE302A00A300A4012024AC
:1038AC00FD302A00A3000130A4002024FC302A00A3
:1038BC00A300A4012024FB302A00A300A40120248F
:1038CC008831002098312600E70122008C130C1758
:1038DC002900D301D401D501D6012600E301E4016E
:1038EC0029005908043A0130031D0030F100590831
:1038FC00053A0130031D0030F0007108F004031983
:10390C00B42C02302A00CE001030CF00A030D000F2
:10391C000330D1000830D20080311E25983164006C
:10392C000D30FB002D30FC00D730FD00FD0B9C2C26
:10393C00FC0B9C2CFB0B9C2C0000000002302A0082
:10394C00CE001030CF00A930D0000330D1000830A9
:10395C00D20080311E2598316400452D290059086C
:10396C00003A0319E42C01302A00CE00CF01BB3001
:10397C00D0000330D1000830D20080311E259831A0
:10398C0064000D30FB002D30FC00D730FD00FD0B2A
:10399C00CD2CFC0BCD2CFB0BCD2C000000000130F2
:1039AC002A00CE00CF01B230D0000330D100083055
:1039BC00D20080311E2598316400452D290059080C
:1039CC00003A031D422D22000D170230FB0004307B
:1039DC00FC00BA30FD00FD0BF12CFC0BF12CFB0BA9
:1039EC00F12C00002A00A101A20180302206F00077
:1039FC0080307002031D042D0C30210203182A2D77
:103A0C0022008D1764000230FB000430FC00BA3039
:103A1C00FD00FD0B0F2DFC0B0F2DFB0B0F2D0000D4
:103A2C008D1364000230FB000430FC00BA30FD0042
:103A3C00FD0B1E2DFC0B1E2DFB0B1E2D00002A005A
:103A4C00A10A0319A20AFB2C22000D130430FB005F
:103A5C000C30FC003330FD00FD0B322DFC0B322DF5
:103A6C00FB0B322D0000000026006B080319402DC3
:103A7C0022008D176400452D22000D178D17103074
:103A8C002600E9002730EA001030EC002730ED006A
:043A9C0000200800FE
:103AA00090314B26983126006108643A03196B2D3A
:103AB000E10A803029004E06F00080305606700280
:103AC000031D642D55084D0203186A2D5508CD00BD
:103AD0005608CE00832D2600E10129004D082A005A
:103AE000AB0029004E082A00AC00290053082A0028
:103AF000AD00290054082A00AE009031AC20983166
:103B00002900CD01CE01290080305606F200803018
:103B100052067202031D8E2D510855020130031802
:103B20000030F20080305006F100803056067102FD
:103B3000031D9C2D55084F02013003180030F10081
:103B40008030F000803050067002031DA92D4F0810
:103B5000003C013003180030F0007108F0057208D5
:103B6000F0040319172E640090314B26983126007B
:103B70006108643A0319CF2DE10A803029004E060E
:103B8000F000803056067002031DC82D55084D0206
:103B90000318CE2D5508CD005608CE00E72D26007F
:103BA000E10129004D082A00AB0029004E082A0037
:103BB000AC00290053082A00AD00290054082A004F
:103BC000AE009031AC2098312900CD01CE010D30EE
:103BD0002A00C7000030C800C9010530CA00013002
:103BE000CB008031F026983170080319FA2D01308E
:103BF0002600DF0026005F08013A0130031D003077
:103C00002A00A0000D30C7000030C800C9010530EF
:103C1000CA00CB018031F02698312008F005031945
:103C2000162E3E242900D301D401172E832D08001F
:103C300003302900EF002600E5012A00AB01903196
:103C40006820983129006F082600DC0050250030DC
:103C500029005406031D2E2E00305306031D312E5D
:103C6000D62E1430F4000030F5005308F00054084C
:103C7000F100903100209831700829005307ED00C1
:103C80007108543DEE006F08EC006C081F3C031CEB
:103C9000CF2E6C08F00026005E08F4008031B920B9
:103CA000983170082A00AB00903168209831502577
:103CB000003029005406031D5F2E00305306031DFB
:103CC000622ED62E80305406F00080306E067002D0
:103CD000031D6C2E6D0853020318CD2E1430F40012
:103CE0000030F5005308F0005408F1009031002036
:103CF0009831700829005307ED007108543DEE001B
:103D00006C08F00026005E08F4008031B92098317C
:103D100070082600E50029006F082600DC008030CE
:103D200029005406F00080307002031D992E78306F
:103D3000530203189C2ECF2E6F086C07F2007208F6
:103D4000EC0026006008003A0130031D0030F1004D
:103D50007208093A0130031D0030F0007108F005C7
:103D60000319B62E08302900EC00CC2E260060087E
:103D7000003A0130031D0030F10029006C08113AAF
:103D80000130031D0030F0007108F0050319CC2E3E
:103D90001030EC000430EF00CE2ECF2E452E260042
:0E3DA00065082A00AB009031682098310800B9
:103DAE0025006F08F00026005D08F4008031B92070
:103DBE00983170082900E600700826006607F400A6
:103DCE0074082900E8000530F20026005D08F000B6
:103DDE00F10172080319F72EF035F10DFF3EF12EA9
:103DEE0001307002F2000030713BF3008030730638
:103DFE00F00080307002031D062F74087202031843
:103E0E00142F0530F0005D082900E8007008031932
:103E1E00132FE835FF3E0E2FE80326006608290013
:103E2E0066020318202F6608260066022900E900A4
:103E3E00212FE90169082600E600290069082A00F9
:103E4E00AB0088312C2798315025003029005406BC
:103E5E00031D332F00305306031D362FB22F530888
:103E6E00EA005408EB0026005D0829006907E70008
:103E7E0067086802031CAB2F67082A00AB00883165
:103E8E002C2798315025003029005406031D512F40
:103E9E0000305306031D542FB22F80305406F0000D
:103EAE0080306B067002031D5E2F6A085302031CDE
:103EBE006B2F3430FC00F130FD00FD0B642FFC0B3A
:103ECE00642F000000005025803029005406F000B9
:103EDE0080306B067002031D762F6A085302031C96
:103EEE00832F3430FC00F130FD00FD0B7C2FFC0BDA
:103EFE007C2F000000005025803029005406F00071
:103F0E0080306B067002031D8E2F6A085302031851
:103F1E00A52F5308EA005408EB0067082600E600B8
:103F2E00803029005406F00080307002031DA12F4E
:103F3E00783053020318A42FAB2FA62FAB2F2600D9
:103F4E005D082900E7073F2F260066082A00AB0010
:083F5E0088312C27983108007E
:103F660097302900C5000530C6004E30C700053021
:0E3F7600C800F03021009E009D011D140800BF
:103F84002000F8010830FC00700DF80D7408F802E8
:103F94000318CE2FF8070310F00DFC0BC62F0800F2
:103FA40029005E08F000F036F036F036F0360A30BC
:103FB400F4008031B92098310F3029005E05F100FA
:063FC4007108F00708007F
:103FCA0029005E0823009100920195131513151418
:063FDA001308F0000800CE
:103FE00012001E00F003031DF02FF103031DF02F3C
:023FF0000800C7
:1040000026005C08F0005E08F4008031B920A03181
:1040100070082900E600700826006507F40074089F
:104020002900E8000530F20026005E08F000F101EA
:10403000720803191F28F035F10DFF3E19280130D1
:104040007002F2000030713BF30080307306F00024
:1040500080307002031D2E287408720203183C2859
:104060000530F0005E082900E800700803193B28BD
:10407000E835FF3E3628E803260065082900660279
:10408000031848286608260065022900E900492827
:10409000E90169082600E500290069082A00AB004B
:1040A00090316820A03198315025A031003029008E
:1040B0005406031D5D2800305306031D6028E228C6
:1040C0005308EA005408EB0026005E08290069073F
:1040D000E70067086802031CDB2867082A00AB00BA
:1040E00090316820A03198315025A031003029004E
:1040F0005406031D7D2800305306031D8028E22846
:1041000080305406F00080306B067002031D8A2850
:104110006A085302031C99283430FC00F130FD007A
:10412000FD0B9028FC0B90280000000098315025D2
:10413000A031803029005406F00080306B067002F8
:10414000031DA4286A085302031CB3283430FC0062
:10415000F130FD00FD0BAA28FC0BAA28000000008E
:1041600098315025A031803029005406F00080306D
:104170006B067002031DBE286A0853020318D52877
:104180005308EA005408EB0067082600E500803079
:1041900029005406F00080307002031DD1287830C9
:1041A00053020318D428DB28D628DB2826005E0813
:1041B0002900E7076928260065082A00AB0090312E
:0641C0006820A031080098
:1041C60003302900EB00E7016B082500EF00033000
:1041D6002900E8001430F4000030F5005308F00020
:1041E6005408F10090310020A031700829005307CF
:1041F600E9007108543DEA00E60166081F3C031C0D
:1042060094296608F00026005D08F4008031B92084
:10421600A03170082A00AB0088312C27A0319831D4
:104226001826A03198315025A031003029005406B7
:10423600031D1F2900305306031D2229B229803091
:104246005406F00080306A067002031D2C296908A6
:104256005302031892291430F4000030F500530875
:10426600F0005408F10090310020A03170082900B8
:104276005307E9007108543DEA006608F00026007D
:104286005D08F4008031B920A03170082600E600F0
:1042960065082900E7006B082500EF0026005C088A
:1042A6002900E80080305406F00080307002031DBB
:1042B6005E29783053020318612994296B08660732
:1042C600F2007208E60026006208003A0130031D7B
:1042D6000030F1007208093A0130031D0030F00089
:1042E6007108F00503197B2908302900E600912999
:1042F60026006208003A0130031D0030F100290053
:104306006608113A0130031D0030F0007108F0050F
:10431600031991291030E6000430EB009329942903
:10432600002967082600E50066082A00AB008831E8
:104336002C27A031260065082A00AB0090316820A2
:10434600A031290068082600DC003430FC00F1307A
:10435600FD00FD0BAC29FC0BAC2900000000080099
:1043660029005308E0005408E100E320003029004A
:104376005406031DC02900305306031DC62990317B
:10438600E327A0311B2B98315025A031803029001E
:104396005406F00080307002031DD3297830530292
:1043A6000318D6291B2B9831D726A03100302900B7
:1043B6005406031DE02900305306031DE6299031FB
:1043C600E327A0311B2B98315025A03180302900DE
:1043D6005406F00080307002031DF3297830530232
:1043E6000318F6291B2B0020003029005406031D54
:1043F600FE2900305306031D042A9031E327A0311D
:104406001B2B98315025A031803029005406F0002E
:1044160080307002031D112A783053020318142AC3
:104426001B2B80305406F10080307102031D1D2ABB
:10443600C8305302013003180030F10080305406B2
:10444600F000803061067002031D2B2A60085302BB
:10445600013003180030F00070087105F3005308AE
:104466006002F1005408613BF2008030F0008030B9
:1044760072067002031D412A7108643C013003185C
:104486000030F0007308F00503194A2A1B2B530865
:10449600E0005408E100260066082900E200E30176
:1044A600260065082900E400E50126006808013AAF
:1044B600031D5F2AE801612A0130E8009031E327F5
:1044C600A031260068082A00AB008031E727A0311A
:1044D6000230FB000430FC00BA30FD00FD0B712AEF
:1044E600FC0B712AFB0B712A000098315025A03174
:1044F600803029005406F00080307002031D852AA2
:10450600783053020318882A1B2BE3200030290039
:104516005406031D902A00305306031D962A903137
:10452600E327A0311B2B98315025A031803029007C
:104536005406F00080307002031DA32A783053021F
:104546000318A62A1B2B9831D726A0310030290044
:104556005406031DB02A00305306031DB62A9031B7
:10456600E327A0311B2B98315025A031803029003C
:104576005406F00080307002031DC32A78305302BF
:104586000318C62A1B2B0020003029005406031DE1
:10459600CE2A00305306031DD42A9031E327A031DA
:1045A6001B2B98315025A031803029005406F0008D
:1045B60080307002031DE12A783053020318E42A82
:1045C6001B2B80306106F000803054067002031DFC
:1045D600EE2A5308600203181A2B26006808013ACF
:1045E600031DF72AE801F92A0130E80068082A00C5
:1045F600AB008031E727A031290062082600E600DB
:10460600290064082600E500290062082A00AB009C
:1046160088312C27A031260065082A00AB0090318E
:104626006820A03129006008D3006108D400640026
:0246360008007A
:1046380064002600E1012900CD01CE012600DF013A
:1046480098315025A031803029005406F000803080
:104658007002031D312B6E3053020318342B082CC3
:104668009031E327A03120006608003A031D3F2B54
:1046780088310020A0310230FB000430FC00BA3041
:10468800FD00FD0B452BFC0B452BFB0B452B0000C0
:1046980098315025A03129005308B0005408B100C2
:1046A80080305406F00080307002031D5D2B6E30A0
:1046B80053020318602B082C8030F10080302F063D
:1046C8007102031D692B2E086E3C0130031800305F
:1046D800F10080302F06F000803054067002031D70
:1046E800772B53082E02013003180030F0007108B0
:1046F800F0050319802B082CB3210030290054063B
:10470800031D882B00305306031D8E2B9031E327A1
:10471800A031082C803029005406F0008030700247
:10472800031D982B7830530203189B2B082C20006C
:104738006708053A0130031D0030F1006908053AA1
:104748000130031D0030F0007108F0050319AD2B8E
:10475800082C6908053C0318BB2B26005D082500BA
:10476800EF0001302600DD009831D726A0318030D7
:1047780029005406F00080307002031DC52B7830E4
:1047880053020318C82B082C20006708053C03189F
:10479800D32B26005E08DC000130DE00002020005C
:1047A8006908053A031DDC2B01302600DD00ED2BDE
:1047B80020006908063A031DE52B02302600DD00BB
:1047C800ED2B20006908073A031DED2B0430260065
:1047D800DD0020006708053A031DF62B013026008E
:1047E800DE00072C20006708063A031DFF2B023065
:1047F8002600DE00072C20006708073A031D072C57
:0A48080004302600DE006400080002
:1048120080313E20A031290042082A00E700803181
:104822000320A0312A00E70180310320A031AE30FD
:104832002A00E70080310320A03129004908023A0A
:104842000130031D0030F1004908033A0130031D15
:104852000030F0007108F0040319E52CD5302A006D
:10486200E70080310320A03180302A00E700803148
:104872000320A031A8302A00E70080310320A031B4
:104882003F302A00E70080310320A031D3302A00D4
:10489200E70080310320A03129004908023A031DB4
:1048A200592C41082A00E70080310320A031612CF5
:1048B200290041081F3E2A00E70080310320A03171
:1048C20040302A00E70080310320A0318D302A00D9
:1048D200E70080310320A03114302A00E700803144
:1048E2000320A03181302A00E70080310320A0316B
:1048F200B4302A00E70080310320A031D9302A00E9
:10490200E70080310320A03122302A00E700803105
:104912000320A03120302A00E70080310320A0319B
:1049220002302A00E70080310320A03121302A0022
:10493200E70080310320A0312A00E7018031032003
:10494200A0317F302A00E70080310320A0312E30D1
:104952002A00E70080310320A03129004908023AE9
:10496200031DC02CA0302A00E70080310320A031B3
:10497200C0302A00E70080310320A031CC2CA130C6
:104982002A00E70080310320A031C8302A00E70066
:1049920080310320A031DA302A00E7008031032081
:1049A200A03102302A00E70080310320A031DB3041
:1049B2002A00E70080310320A03140302A00E700BE
:1049C20080310320A0318D2DD5302A00E7008031BF
:1049D2000320A03180302A00E70080310320A0317B
:1049E200A8302A00E70080310320A0313F302A009E
:1049F200E70080310320A031D3302A00E700803164
:104A02000320A031290041082A00E7008031032059
:104A1200A03140302A00E70080310320A0318D30E0
:104A22002A00E70080310320A03114302A00E70079
:104A320080310320A03181302A00E7008031032039
:104A4200A031FF302A00E70080310320A031D930A5
:104A52002A00E70080310320A031F1302A00E7006C
:104A620080310320A03120302A00E700803103206A
:104A7200A03102302A00E70080310320A03121302A
:104A82002A00E70080310320A0312A00E7018031AB
:104A92000320A0317F302A00E70080310320A031BB
:104AA2002E302A00E70080310320A0312900490876
:104AB200043A031D692DA0302A00E700803103204B
:104AC200A031C0302A00E70080310320A031752DCB
:104AD200A1302A00E70080310320A031C8302A002B
:104AE200E70080310320A031DA302A00E70080316C
:104AF2000320A03112302A00E70080310320A031C8
:104B0200DB302A00E70080310320A03140302A0048
:104B1200E70080310320A031A4302A00E700803171
:104B22000320A031A6302A00E70080310320A03103
:104B32008031D120A0310330FB000830FC007730F7
:104B4200FD00FD0BA22DFC0BA22DFB0BA22D803133
:104B52003E20A031290042082A00E70080310320CC
:104B6200A03140302A00E70080310320A031290023
:104B72004908023A0130031D0030F1004908033AA6
:104B82000130031D0030F0007108F0040319E72D15
:104B9200DF015F08033C031CE62D5F082A00E200E8
:104BA200E30180315D20A0312900DE01290080303F
:104BB2005E020318E32DDE0A2A00E701803103209A
:104BC200A031D72D2900DF0ACA2D042EDF015F088C
:104BD200073C031C042E5F082A00E200E301803137
:104BE2005D20A0312900DE01290080305E02031819
:104BF200012EDE0A2A00E70180310320A031F52DC3
:104C02002900DF0AE82D8031D120A031AF302A00FF
:0A4C1200C7008831E025A03108003A
:104C1C00640029005908043A0130031D0030F100EA
:104C2C005908053A0130031D0030F0007108F004FA
:104C3C0003192F2E02302A00CE004030CF00253031
:104C4C00D0000330D1000430D20080311E25A031B9
:104C5C00432E29005908003A0319432E01302A002B
:104C6C00CE000430CF002030D0000330D10004300F
:104C7C00D20080311E25A031432E1C232900590857
:104C8C00003A031D4A2E5F2E26006708003A0130B9
:104C9C00031D0030F10020006608003A0130031DAE
:104CAC000030F0007108F00403195F2E88310020E9
:104CBC00A031FF302A00A300260065082A00A400BA
:104CCC0098312024A031FE302A00A300260066086B
:104CDC002A00A40098312024A031FD302A00A30022
:104CEC00260068082A00A40098312024A031FC304A
:104CFC002A00A3000030F4000130F5002900300830
:104D0C00F0003108F10090310020A03170082A0029
:104D1C00A40098312024A031FB302A00A3000030DD
:104D2C00F4000130F50029003008F0003108F100E2
:104D3C0090310020A0317808F0007908F10070085B
:104D4C002A00A40098312024A03110302600E9005C
:104D5C002730EA001030EC002730ED0098310020AD
:104D6C00A031290053082600E3002900540826002E
:0C4D7C00E40022008C130C1764000800F7
:104D880029005908043A0130031D0030F100590880
:104D9800053A0130031D0030F0007108F0040319D2
:104DA800E32E2A00CE010A30CF00B430D000013003
:104DB800D1000930D20080311E25A031F52E2900FE
:104DC8005908003A0319F52E2A00CE010330CF0006
:104DD800D230D0000130D1000930D20080311E25F8
:104DE800A03164000B30FB002630FC005D30FD0074
:104DF800FD0BFC2EFC0BFC2EFB0BFC2E0000000018
:104E080064000B30FB002630FC005D30FD00FD0B1C
:104E18000B2FFC0B0B2FFB0B0B2F0000000064006B
:104E28000B30FB002630FC005D30FD00FD0B1A2F17
:104E3800FC0B1A2FFB0B1A2F0000000064000B302C
:104E4800FB002630FC005D30FD00FD0B292FFC0B1C
:104E5800292FFB0B292F00000000640029005908A6
:104E6800043A0130031D0030F1005908053A0130B9
:104E7800031D0030F0007108F0040319512F2A00B7
:104E8800CE010A30CF00C830D0000130D10009303F
:104E9800D20080311E25A031632F29005908003A1D
:104EA8000319632F2A00CE010330CF00BE30D00093
:104EB8000130D1000930D20080311E25A031903157
:104EC800E327A03101302600E80001302A00AB00BA
:104ED8008031E727A031FF30A300260065082A00AB
:104EE800A40098312024A031FE302A00A300260017
:104EF80066082A00A40098312024A031FD302A0039
:104F0800A300260068082A00A40098312024A031B4
:104F180029005908043A0130031D0030F1005908EE
:104F2800053A0130031D0030F0007108F004031940
:104F3800AB2F2A00CE017030CF00EB30D00001300B
:104F4800D1000130D20080311E25A031BD2F2900AB
:104F58005908003A0319BD2F2A00CE010830CF00A6
:104F6800ED30D0000130D1000130D20080311E2553
:104F7800A03101302000C000A8310020A031080075
:104F880029004908013C0318D02FAE302A00C70079
:104F98008831E025A031E12F29004908013A031D95
:104FA800E12FCC01CB012A00D80180318522A03124
:0C4FB8002A00D80180318522A0310800B9
:10500000640029005908043A0130031D0030F10002
:105010005908053A0130031D0030F0007108F00412
:105020000319F22820004008003A031DA4282A0092
:10503000CE011630CF00E730D0000230D10007306B
:10504000D20080311E25A83102302A00CE00063061
:10505000CF002A30D0000330D1000930D200803197
:105060001E25A83104302A00CE000230CF004D307A
:10507000D0000330D1000E30D20080311E25A8317F
:1050800006302A00CE000230CF003D30D000033081
:10509000D1000F30D20080311E25A83164000D30C0
:1050A000FB002D30FC00D730FD00FD0B5528FC0B1C
:1050B0005528FB0B55280000000064000B30FB0056
:1050C0002630FC005D30FD00FD0B6428FC0B6428DD
:1050D000FB0B64280000000064002A00CE011030A1
:1050E000CF003430D0000330D1000830D2008031FE
:1050F0001E25A83102302A00CE000430CF00BF3078
:10510000D0000230D1000A30D20080311E25A831F3
:1051100004302A00CE001030CF00B630D00002306C
:10512000D1000830D20080311E25A83106302A0077
:10513000CE000430CF00AB30D0000230D1000A30B6
:10514000D20080311E25A8310430FB000C30FC0059
:105150003330FD00FD0BAA28FC0BAA28FB0BAA2864
:105160000000000027004E08013A031DC5282A0050
:10517000CE011030CF00CA30D0000230D10008304C
:10518000D20080311E25A831D2282A00CE0110304D
:10519000CF00DE30D0000230D1000830D2008031A4
:1051A0001E25A83102302A00CE001030CF00D530A5
:1051B000D0000230D1000830D20080311E25A83145
:1051C00026006B080319F1282A00CE017030CF00A9
:1051D000D330D0000230D1000130D20080311E2502
:1051E000A831162A29005908003A0319D4292000A9
:1051F0004008003A031D89292A00CE010430CF005F
:105200002A30D0000230D1000730D20080311E2574
:10521000A83101302A00CE000330CF002030D0006A
:105220000230D1000930D20080311E25A83164003F
:105230000F30FB003530FC005130FD00FD0B1E2906
:10524000FC0B1E29FB0B1E2964000B30FB002630D3
:10525000FC005D30FD00FD0B2B29FC0B2B29FB0B0B
:105260002B290000000064002A00CE010430CF008A
:10527000DC30D0000130D1000E30D20080311E254C
:10528000A83101302A00CE000330CF003230D000E8
:105290000230D1000F30D20080311E25A8316400C9
:1052A0000D30FB002D30FC00D730FD00FD0B5629E2
:1052B000FC0B5629FB0B56290000000064000B3044
:1052C000FB002630FC005D30FD00FD0B6529FC0B6A
:1052D0006529FB0B65290000000064002A00CE014F
:1052E0000430CF005630D0000230D1000830D20058
:1052F00080311E25A83101302A00CE000330CF00B6
:105300004B30D0000230D1000A30D20080311E254F
:10531000A8310430FB000C30FC003330FD00FD0BE5
:105320008F29FC0B8F29FB0B8F2900000000270021
:105330004E08013A031DA9292A00CE01CF014230AF
:10534000D0000230D1000830D20080311E25A831B3
:10535000B5292A00CE01CF01AB30D0000130D100F9
:105360000830D20080311E25A83101302A00CE003D
:10537000CF01A230D0000130D1000830D2008031FE
:105380001E25A83126006B080319D3292A00CE0157
:105390000830CF00A030D0000130D1000130D20061
:1053A00080311E25A831162A29005908003A031D0C
:1053B000162A20004008003A031D022A22000D1779
:1053C0008D1764000D30FB002D30FC00D730FD0040
:1053D000FD0BE829FC0BE829FB0BE8290000000085
:1053E00064000B30FB002630FC005D30FD00FD0B3F
:1053F000F729FC0BF729FB0BF729000000006400DC
:105400000D138D130430FB000C30FC003330FD0015
:10541000FD0B082AFC0B082AFB0B082A00000000E1
:1054200026006B080319162A22008D1764008831A4
:065430000020A831080075
:1054360007302900DE009831E527A83170082900D9
:10544600C1000830DE009831E527A8317008290030
:10545600C4004908013C0318342AA0310924A831A4
:10546600A72A29004908013A031DA72A0130CC00C2
:10547600CB0103302A00D80080318522A8311A30AA
:10548600FC00F830FD00FD0B462AFC0B462A000006
:1054960003302A00D80080318522A8310630FC006E
:1054A6003030FD00FD0B552AFC0B552A0000033059
:1054B6002A00D80080318522A83102302A00D8007F
:1054C60080318522A83102302A00D8008031852219
:1054D600A83108302A00D80080318522A8312A0058
:1054E600D80180318522A83108302A00D8008031C1
:1054F6008522A8312A00D80180318522A8310130C1
:105506002A00D80080318522A8311A30FC00F830F4
:10551600FD00FD0B8C2AFC0B8C2A00002A00D8010A
:1055260080318522A83106302A00D80080318522B4
:10553600A8312A00D80180318522A8310C302A00F2
:0A554600D80080318522A83108004A
:105550002900DD015C08093C0318CB2A0A30F4005D
:105560005C08F0009831C227A83170082900DD00DE
:105570007008DD00DD35DD35DD35DD350A30F40060
:105580005C08F0009831C227A8317808F000700854
:105590002900DD04CD2A5C08DD005D08F00008006C
:1055A000290032082A00CE00CF01BA30D0000430E2
:1055B000D10080314923A8310A3029003202031C6E
:1055C000E42A3E08B300E62A3030B3002E30B4009F
:1055D0003F08B5005908043A0130031D0030F100BE
:1055E0005908053A0130031D0030F0007108F0043D
:1055F0000319092B04302A00CE000630CF00B33047
:10560000D0000430D1000330D20080311E25A831F3
:105610001B2B29005908003A03191B2B01302A00C3
:10562000CE00CF01B330D0000430D1000330D2001F
:0856300080311E25A83108009D
:105638000D302A00C7000030C800C9013230CA0046
:10564800CB018031F026A83170080319D42B06301D
:10565800FB001330FC00AD30FD00FD0B312BFC0BC3
:10566800312BFB0B312B00000000640020000D1CC7
:10567800502B26006808003A031D452B0130E8002E
:10568800462BE80168082A00AB008031E727A831DB
:1056980088310020A831C02B27006F08013A031D6C
:1056A800572BEF01592B0130EF006F08013A031D0A
:1056B8008F2B29005908043A0130031D0030F100EE
:1056C8005908053A0130031D0030F0007108F00454
:1056D80003197C2B2A00CE017030CF005630D00041
:1056E8000430D1000130D20080311E25A8318E2B24
:1056F80029005908003A03198E2B2A00CE010830D8
:10570800CF005A30D0000430D1000130D2008031AF
:105718001E25A831C02B29005908043A0130031D61
:105728000030F1005908053A0130031D0030F0003F
:105738007108F0040319AE2B2A00CE017030CF0097
:105748005830D0000430D1000130D20080311E25FD
:10575800A831C02B29005908003A0319C02B2A0088
:10576800CE010830CF005C30D0000430D1000130C9
:10577800D20080311E25A8310D302A00C700003024
:10578800C800C9013230CA00CB018031F026A831E7
:1057980070080319D42B98310020A8316400C02B5D
:1057A8000D302A00C7000030C8000230C90032306E
:1057B800CA00CB018031F026A831700803195A2C91
:1057C800640020000D195A2C0530F20026005D08EF
:1057D800F000F10172080319F52BF035F10DFF3EC9
:1057E800EF2B01307002F2000030713BF300803083
:1057F800F000803073067002031D052C2600720825
:105808006602013003180030F00027006F08F00529
:105818000319172C2600E60A66082A00AB0088310F
:105828002C27A8314A2C27006F080130031D0030AF
:10583800F4000530F20026005D08F000F10172085E
:1058480003192A2CF035F10DFF3E242C013070028B
:10585800F2000030713BF3008030F00080307306B6
:105868007002031D3A2C26007208650201300318E5
:105878000030F0007408F00503194A2C2600E50AE8
:1058880065082A00AB0090316820A83188310020D3
:10589800A83198310020A8319C30FC00D730FD0099
:1058A800FD0B542CFC0B542C6400E52B0D302A0006
:1058B800C7000030C8000130C9003230CA00CB012F
:1058C8008031F026A83128005E08003A0130031D17
:1058D8000030F1007108F0050319B32C64002000B2
:1058E8008D18B32C26006608003C013003180030E0
:1058F800F00027006F08F00503198B2C2600E6033B
:1059080066082A00AB0088312C27A831A32C270071
:105918006F080130031D0030F10026006508003CC7
:10592800013003180030F0007108F0050319A32CAA
:10593800E50365082A00AB0090316820A83188315A
:105948000020A83198310020A8319C30FC00D730C5
:10595800FD00FD0BAD2CFC0BAD2C6400732C080076
:1059680064002100971217169711171597106400F5
:1059780023008C010C148C148D01220091139313B5
:1059880078302100990020008C018D018E01403073
:1059980022008C008D018E01033021008C0007301D
:1059A8008D008E018C130C139831B327A8311E1467
:1059B8009E14951324000D148D140D158B130800D7
:1059C8002900DE019831E527A83170082900C200B6
:1059D8000130DE009831E527A83170082900C90098
:1059E8007008003A031DFF2C21000D138D132200AF
:1059F8000D178D17052D21000D178D1722000D137A
:045A08008D130800F2
:106000002800E31805287414062874100D302A009F
:10601000C7000030C800C9013230CA000130CB00CF
:106020008031F026B031F1017418F10A7108F005E1
:1060300003191C282800E3142800E31821287414ED
:10604000222874100D302A00C7000030C800C90192
:106050003230CA00CB018031F026B031F101741822
:10606000F10A7108F00503194F2826006F08F000A7
:106070008031D827B03127004608F4004708F500E2
:106080004808F6004908F70080315727B0318831B9
:10609000B522B03170082700C4007108C5000D306A
:1060A0002A00C7000030C800C9013230CA00CB0145
