:04000000B8310028EB
:1000060029005408003A03193D28F1017108073CFC
:10001600031C2A282B00A31B132821008D13152847
:1000260021008D170630FD00FD0B172800000D1767
:100036000630FD00FD0B1D2800000D130630FD00E7
:10004600FD0B232800002B00A335F10A0928210007
:100056008D170630FD00FD0B2E2800000D1706300B
:10006600FD00FD0B342800000D130630FD00FD0BCE
:060076003A28000008001A
:10007C0029005408003A03195C2821000D1706309A
:10008C00FD00FD0B472800008D170630FD00FD0B11
:10009C004D2800008D130630FD00FD0B5328000089
:0E00AC000D130630FD00FD0B59280000080062
:1000BA0029004F082A006F072B00A2003E202900C2
:1000CA004D082B00A30003202B00A30103202A00C4
:1000DA006E08B03E2B00A30003202B0022080F3C21
:1000EA00031C7B282208A000A1018C282208F20008
:1000FA00F236F236F236F2367208A1007208F000D1
:10010A00F035F035F035F03570082202A0002008ED
:10011A00A30003202B002108103EA30003203E2049
:10012A0029004D082B00A300032040302B00A30018
:04013A000320080096
:10013E002000F801F9011030FC00710DF80DF90DD9
:10014E007408F8027508031C750FF9020318B62817
:10015E007408F80775080318750FF9070310F00DEA
:08016E00F10DFC0BA4280800B0
:1001760020007008F100F0010830FC007108F40C52
:100186000318C928FC0BC228F10100340310CE283D
:10019600F40C0318F107F10CF00CFC0BCB2808004B
:1001A60029005408003A0319EB2821008D13063064
:1001B600FD00FD0BDC2800000D170630FD00FD0BD1
:1001C600E22800008D170630FD00FD0BE828000030
:0201D60008001F
:0801D800FA1FF21300300800C9
:1001E000FB14FB1FFA28FF30F300F200F100F000CF
:0801F000FA0DF20CFF300800CB
:1001F8003E2029004D082B00A300032040302B008F
:10020800A30003202A006508EE006408EF005D20C3
:100218002A00E901680869020318C5296908660700
:1002280084000030673D85000008003A031D1E2940
:10023800EB0127296908660784000030673D8500BF
:1002480020300002EB00EA016A08043C031CBC29C8
:100258006B08F0000530F400BB202A006A08F0079C
:100268000030F13D083070078400AD30713D8500E5
:100278000008EC006508023A013003190030F1006B
:100288006508043A013003190030F0007008F105E0
:100298006508063A013003190030F0007108F005CE
:1002A80003197F29EC195A29ED135B29ED17EC196D
:1002B8005F296D1360296D176C196429ED12652982
:1002C800ED166C1969296D126A296D16EC186E29DC
:1002D800ED116F29ED15EC1873296D1174296D1541
:1002E8006C187829ED107929ED146C187D296D109A
:1002F8007E296D149F296C198329ED138429ED1724
:100308006C1988296D1389296D17EC188D29ED1240
:100318008E29ED16EC1892296D1293296D166C181A
:100328009729ED119829ED156C189C296D119D29B7
:100338006D15ED106D106D082B00A300032029002A
:100348005408043A0130031D0030F1005408053AFE
:100358000130031D0030F0007108F0040319B929B9
:100368002A006D082B00A30003202A00EA0A282986
:100378002B00A30103202B00A30103202A00E90A74
:100388000E29650AEE006408EF005D202A00E901E5
:100398006808690203188B2A690866078400003018
:1003A800673D85000008003A031DDC29EB01E529BB
:1003B8006908660784000030673D85002030000228
:1003C800EB00EA016A08043C031C822A6B08F0006F
:1003D8000530F400BB202A006A08F0070030F13D20
:1003E800083070078400AD30713D85000008EC00CE
:1003F8006508023A013003190030F1006508043A33
:10040800013003190030F0007008F1056508063A5C
:10041800013003190030F0007108F00503193D2A76
:10042800EC1B182AED13192AED17EC1B1D2A6D1366
:100438001E2A6D176C1B222AED12232AED166C1B3F
:10044800272A6D12282A6D16EC1A2C2AED112D2A4E
:10045800ED15EC1A312A6D11322A6D156C1A362AEF
:10046800ED10372AED146C1A3B2A6D103C2A6D14D6
:10047800652A6C1B412AED13422AED176C1B462A8C
:100488006D13472A6D17EC1A4B2AED124C2AED16FC
:10049800EC1A502A6D12512A6D166C1A552AED1154
:1004A800562AED156C1A5A2A6D115B2A6D15EC192E
:1004B8005F2AED10602AED14EC19642A6D10652A84
:1004C8006D146D082B00A300032029005408043A7A
:1004D8000130031D0030F1005408053A0130031DB6
:1004E8000030F0007108F00403197F2A2A006D0813
:1004F8002B00A30003202A00EA0AE6292B00A30107
:1005080003202B00A30103202A00E90ACC29D320C9
:020518000800D9
:10051A002A00E5012900D5010130CE002A0064082D
:10052A00E500E535E535E535E535290057080319D0
:10053A00A12A08302A00E50729004E080319A82A2B
:10054A0004302A00E507290055080319AF2A0230AA
:10055A002A00E507290056080319B52A2A00E50AE0
:10056A003E2029004D082B00A30003202A0065081D
:10057A002B00A3000320D3200630FC003030FD00FE
:10058A00FD0BC52AFC0BC52A000004302A00E5022F
:10059A003E2029004D082B00A30003202A006508ED
:1005AA002B00A3000320D3200630FC003030FD00CE
:0C05BA00FD0BDD2AFC0BDD2A0000080010
:0E05C600F201F101F001F801F301003008002C
:1005D4007B15FB1FF42A0130F300F201F101F00155
:0805E400FA0DF20CFF300800D3
:1005EC002A00E801053068020318062B6808660724
:1005FC0086000030673D870020308100E80AF82A29
:10060C006808660786000030673D87008101E803B3
:10061C0068086607E9000030673DEA000A30F4001C
:10062C00F5016408F0006508F1009F207808F000DF
:10063C007908F1003030F0072A00690886006A0852
:10064C008700700881000A30F400F5016408F0009E
:10065C006508F1009F2070082A00E4007108E5008D
:10066C0000307106031D3C2B00307006031D3F2B20
:08067C00412BE8030E2B0800DE
:0A0684001D30FD00FD0B442B0800A3
:10068E00FB09FA09F909F809F80A0319F90A031915
:08069E00FA0A0319FB0A080027
:1006A6002A00E001E1015A08E2005B08E30080301D
:1006B6005B06F00080307002031D632B00305A0287
:1006C6000318712B0130E0000030E1005A08003CAD
:1006D600E2005B08031C013EE301E3026208E4005A
:1006E6006308E5005C08E6005D08E700F6220630D0
:1006F600DE000030DF005F08003C031D842B5E082F
:10070600003C03189F2B5E085C0786005F085D3D72
:10071600870001305E02F00000305F3BF100700898
:100726005C07840071085D3D85000008810001308A
:10073600DE020030DF3B7E2B5C0886005D0887000A
:1007460020308100600861040319C52BDE01DF013A
:100756005E085C0784005F085D3D85000008203A5E
:10076600031DB92BDE0A0319DF0AAB2B0130DE02AB
:100776000030DF3B5E085C0786005F085D3D870052
:060786002D308100080087
:10078C0020002230FC00F801F901FA01FB01FC0306
:10079C000319FB2B0310FB0CFA0CF90CF80CF30CE3
:1007AC00F20CF10CF00C031CCD2BFC030319ED2BFC
:1007BC007408F80775080318750FF90776080318FD
:1007CC00760FFA0777080318770FFB07D12B7408FD
:1007DC00F80775080318750FF90776080318760FD4
:0C07EC00FA0777080318770FFB070800D6
:1007F8007408F8027508031C750FF9027608031CC3
:10080800760FFA027708031C770FFB02F30D073007
:10081800FC00730DF80DF90DFA0DFB0D7408731C2F
:10082800232CF8027508031C750FF9027608031CBF
:10083800760FFA027708031C770FFB02302CF807B3
:1008480075080318750FF90776080318760FFA0765
:1008580077080318770FFB07F30DFC0B0D2C720DAF
:10086800F80DF90DFA0DFB0D7408731C492CF802EC
:100878007508031C750FF9027608031C760FFA0237
:100888007708031C770FFB02562CF8077508031826
:10089800750FF90776080318760FFA077708031813
:1008A800770FFB07F20D0730FC00720DF80DF90DFC
:1008B800FA0DFB0D7408721C6F2CF8027508031CE6
:1008C800750FF9027608031C760FFA027708031CE5
:1008D800770FFB027C2CF80775080318750FF907CA
:1008E80076080318760FFA0777080318770FFB07BF
:1008F800F20DFC0B592C710DF80DF90DFA0DFB0DCD
:100908007408721C952CF8027508031C750FF902FF
:100918007608031C760FFA027708031C770FFB0290
:10092800A22CF80775080318750FF907760803183D
:10093800760FFA0777080318770FFB07F10D0730D2
:10094800FC00710DF80DF90DFA0DFB0D7408711C02
:10095800BB2CF8027508031C750FF9027608031CF6
:10096800760FFA027708031C770FFB02C82CF807EA
:1009780075080318750FF90776080318760FFA0734
:1009880077080318770FFB07F10DFC0BA52C700DEA
:10099800F80DF90DFA0DFB0D7408711CE12CF80225
:1009A8007508031C750FF9027608031C760FFA0206
:1009B8007708031C770FFB02EE2CF807750803185D
:1009C800750FF90776080318760FFA0777080318E2
:1009D800770FFB07F00D0730FC00700DF80DF90DCF
:1009E800FA0DFB0D7408701C072DF8027508031C1E
:1009F800750FF9027608031C760FFA027708031CB4
:100A0800770FFB02142DF80775080318750FF907FF
:100A180076080318760FFA0777080318770FFB078D
:100A2800F00DFC0BF12C7018272D7408F8077508C9
:100A38000318750FF90776080318760FFA07770871
:080A48000318770FFB070800FB
:100A500029005408043A0130031D0030F100540805
:100A6000053A0130031D0030F0007108F00403194D
:100A7000462D2A005B08E4005A08E5005C08E60001
:100A80005D08E7005E08E800FC20A02D290054085E
:100A9000023A0130031D0030F1005408033A0130DE
:100AA000031D0030F0007108F00403196C2D0730AD
:100AB000F0002A005B08F400BB20043070072A0015
:100AC000E4005A08E500E5355C08E6005D08E7004B
:100AD0005E08E800FC20A02D2900D6012A005A0853
:100AE000F000F035F0357008083EE4008D222A0051
:100AF0005B08E4008D2201302900D6002A00DF01C6
:100B00005E085F020318A02D5F085C0784000030B8
:100B10005D3D85000008F1007108E400E436E4362C
:100B2000E436E4368D222A005F085C07840000303A
:100B30005D3D85000008E4008D222A00DF0A802D3B
:020B40000800AB
:100B4200833021009D052A005A08F000F035F03567
:100B5200700821009D0442239D149D1CB12DAE2DD1
:100B62001C08F100F0011B08F0040030F104080039
:100B72000330FC009530FD00FD0BBD2DFC0BBD2D9F
:020B8200080069
:060B8400FB15FF30080024
:100B8A007C18FB2DFC18CC2D7C191A2EC52DA10121
:100B9A007208031DEC2D7108F2007008F100780844
:100BAA00F000F801A1157208031DEC2D7108F2007E
:100BBA007008F100F001A11121167208031DEC2D35
:100BCA007108F200F101A115720803190E2E21080D
:100BDA00F302031D031C122E0310F21BFB2DF80D4A
:100BEA00F00DF10DF20DF30BF22D122E7B1B701C82
:100BFA00162EF81F162EF00A0319F10A0319F20A23
:100C0A00031D162EF20CF10CF00CF30A03191A2E1E
:100C1A00162E0130FC00E3221D2E0230FC00EA22CF
:100C2A001D2E0430FC00EC201D2E0830FC00F020A4
:040C3A0000000800AE
:100C3E00A1017208031D342E7108F2007008F10034
:100C4E00F001A1157208031D342E7108F200F10196
:100C5E00A111211672080319422E2108F302031D59
:100C6E00031C462E0310F21B4A2EF00DF10DF20D51
:100C7E00F30B3A2E462E0130FC00E3224D2E0230AD
:0E0C8E00FC00EA224D2E0430FC00EC20080091
:100C9C007B14FB1F592EF201FA1FFF30F200F100FA
:0A0CAC00F000FA0DF20CFF30080012
:100CB600200072087606A100F801F9017308770290
:100CC600031C7D2E7708FD007308F7007D08F300EE
:100CD6007608FD007208F6007D08F2007508FD0032
:100CE6007108F5007D08F1007408FD007008F40035
:100CF6007D08F00077080319F62E7208FA00F2173D
:100D0600F61777087302F7000319B02E083077023A
:100D1600031CA62EF7007408F9007508F40076087F
:100D2600F500F60108307702031CA62EF7007408BA
:100D3600F9007508F400F50108307702031CA62EA9
:100D46007A08F200F62E77080319B02E0310F60C77
:100D5600F50CF40CF90CF70BA92EA11FBD2EF90901
:100D6600F409F509F609F90A0319F40A0319F50A4B
:100D76000319F60A7908F80774080318740FF007C0
:100D860075080318750FF10776080318760FF20732
:100D9600A11BD62E031CE62EF20CF10CF00CF80C5F
:100DA600F30FE62EF22E0318EA2EF809F009F109E0
:100DB600F209F80A0319F00A0319F10A0319F20AEB
:100DC6008030FA06EE2E0130FC00C525F82E0230E2
:100DD600FC00C525F82E0430FC001F26F82E08302E
:0E0DE600FC00F020F82E0030FC000000080099
:100DF4002A00D9015508F1000130F00071080319E7
:100E0400062FF035FF3E012F7008D80053088400E8
:100E14005408850070080005F10071080130031DB5
:100E24000030F0005708F0060319322F5608003C32
:100E34000318202FB925B925D603182F5308840089
:100E44005408850058080005F10071080130031D9D
:100E54000030F0005708F0060319322FFF30D90094
:060E64005908F00008002F
:100E6A00710DF80DF90D7408F8027508031C750F59
:100E7A00F902F00DF10D0F30FC00710DF80DF90DAE
:100E8A007408701C4E2FF8027508031C750FF902BE
:100E9A00532FF80775080318750FF907F00DF10DB0
:100EAA00FC0B422F70185F2F7408F8077508031897
:080EBA00750FF90700000800A4
:100EC2002000FB017308031D77080319B72F72086E
:100ED2007606FA007708F3077E30031C742FF302BC
:100EE2000318BA2F772FF302031CBD2F7208F800E4
:100EF2007108FC007008FD00F817F6170310F201E4
:100F0200F101F0011830A1007D1C912F7408F00747
:100F120075080318750FF10776080318760FF207A4
:100F2200F20CF10CF00CF80CFC0CFD0C0310A10BF4
:100F3200852FF21BA12FF80DF00DF10DF20DF30329
:100F42007B1B701CB32FF81FB32FF00A0319F10A91
:100F52000319F20A031DB32FF20CF10CF00CF30A81
:100F62000319BA2FFA1FF2130030BF2F0130E32208
:100F7200BF2F0230F020BF2F0430EA220000080009
:100F820020007008F8007108F0007208F100730880
:100F9200F200F301FB01FC019E30F300FA01F21FA3
:100FA200DE2FF809F009F109F209F80A0319F00A2B
:100FB2000319F10A0319F20AFA170230FC00C525D7
:020FC200080025
:100FC40020007008F800FB01FC019E30F300FA01D8
:0E0FD400F201F101F0010230FC00C525080019
:100FE200A1302900D0000530D1005A30D20005309E
:0E0FF200D300F03021009E009D011D14080068
:1010000064002900A401A5012600601C0C28290009
:101010002A08A4072B08A53D2600E01C1428290057
:101020002808A4072908A53D2600601D1C282900C2
:101030002608A4072708A53D2600E01D242829002E
:101040002008A4072108A53D2600601E2F2828009F
:101050006D082900A40728006E082900A53D260078
:10106000E01E3A2828006B082900A40728006C0815
:101070002900A53D2600601F422829002208A40758
:101080002308A53D29008030273AF000803025064E
:101090007002031D4D2824080F3C03186F283230BE
:1010A0002407F0000030253DF1007008A40071080D
:1010B000A50070082A00DA007108DB00C530DC00EA
:1010C0000430DD0080315323883129004608BE00FA
:1010D0004708BF002E30C0004808C1009B282408E4
:1010E0002A00DA00290025082A00DB00C530DC00D0
:1010F0000430DD0080315323883129004708203A2D
:10110000031985284708BE0087283030BE002E30DE
:10111000BF004808203A031990284808C0009228C8
:101120003030C0004908203A031999284908C10005
:101130009B283030C1006408043A0130031D0030A0
:10114000F1006408053A0130031D0030F000710819
:10115000F0040319E12826006208013A031DB428AF
:1011600004302A00D300B7282A000630D3005308E1
:10117000DA001030DB002830DC000030DD00023007
:10118000DE008031282588312A005308DA005830E3
:10119000DB002530DC000030DD000230DE00803175
:1011A000282588312A005308DA002830DB00BE30B9
:1011B000DC000430DD000430DE0080312825883179
:1011C000602929006408023A0130031D0030F10053
:1011D0006408033A0130031D0030F0007108F00488
:1011E0000319272926006208013A031DFA282A005C
:1011F000D301FD282A000130D3005308DA0009305A
:10120000DB002230DC000030DD000230DE00803107
:10121000282588312A005308DA000F30DB004030DF
:10122000DC000030DD000230DE008031282588310E
:101230002A005308DA000B30DB00BE30DC0004303B
:10124000DD000430DE008031282588316029290046
:101250006408013A031D602926006208013A031D53
:1012600034292A00D30137292A000130D30053083A
:10127000DA000930DB005430DC000030DD000230E1
:10128000DE008031282588312A005308DA000F302B
:10129000DB005230DC000030DD000130DE00803148
:1012A000282588312A005308DA000B30DB00BE30D5
:1012B000DC000430DD000430DE0080312825883178
:1012C00064002900A401A50126005F1C6C292900E7
:1012D0003008A4073108A53D2600DF1C7429290029
:1012E0003208A4073308A53D26005F1D7C2929008C
:1012F0003808A4073908A53D2600DF1D84292900E8
:101300003608A4073708A53D26005F1E8C29290052
:101310003408A4073508A53D2600DF1E94292900BE
:101320002E08A4072F08A53D26005F1F9C29290031
:101330002C08A4072D08A53D290024082A00DA005E
:10134000290025082A00DB00C530DC000430DD0060
:1013500080315323883129004708BE004808BF0068
:101360004908C0004A08C1006408043A0130031D5E
:101370000030F1006408053A0130031D0030F00030
:101380007108F0040319FA2926006208013A031DC6
:10139000CD2906302A00D300D0292A000430D300FA
:1013A0005308DA001030DB004330DC000030DD0091
:1013B0000230DE008031282588312A005308DA0007
:1013C0005830DB004630DC000030DD000230DE004B
:1013D0008031282588312A005308DA002830DB00C4
:1013E000BE30DC000430DD000430DE008031282512
:1013F0008831792A29006408023A0130031D00303F
:10140000F1006408033A0130031D0030F000710858
:10141000F0040319402A26006208013A031D142A29
:1014200001302A00D300162A2A00D3015308DA001B
:101430000930DB004F30DC000030DD000230DE0020
:101440008031282588312A005308DA000F30DB006C
:101450004C30DC000030DD000230DE008031282519
:1014600088312A005308DA000B30DB00BE30DC0084
:101470000430DD000430DE00803128258831792AEF
:1014800029006408013A031D792A26006208013AFE
:10149000031D4E2A01302A00D300502A2A00D3010E
:1014A0005308DA000930DB004930DC000030DD0091
:1014B0000230DE008031282588312A005308DA0006
:1014C0000F30DB006030DC000130DD000130DE0079
:1014D0008031282588312A005308DA000B30DB00E0
:1014E000BE30DC000430DD000430DE008031282511
:0614F000883164000800D1
:1014F6002000FB01FA01F9018030F800F10CF00C34
:10150600031C8E2A7408F90775080318750FFA0765
:101516000318FB0A0310F01F962A7408FA077508C9
:101526000318750FFB07FB0CFA0CF90CF80C031CDF
:10153600812A7B08F3007A08F2007908F10078081E
:04154600F0000800A9
:10154A002000FB0173080319E12A7208FA00F21756
:10155A008E30F302F31FE42AF309F30A0830730208
:10156A00031CC72AF300F10D7208F100F2010830DA
:10157A007302031CC72AF300F10DF1017308031D5E
:10158A000310CF2A73080319CF2A0310F20CF10CA7
:10159A00F30BCA2A7B1B711CD92A031CD92AF10A0C
:1015AA000319F20AF21BF02AFA1FF32AF209F109C7
:1015BA00F10A0319F20AF32AF201F101F32A7B1460
:1015CA00FB1FF62AF201FA1FF62AFF30F200F10099
:1015DA00FA0DF20CF62A0130FC00F82A0030FC0061
:1015EA00F82AFF30FC00FC080319FE2A80314E2637
:0C15FA0088317108F0007208F100080050
:101606007408003A031D1C2B7508003A031D1C2B99
:101616007608003A031D1C2B7708003A031D1C2B85
:10162600FF30F000FF30F1007F30F200FF30F300B2
:10163600BE2B200077080319AA2B73080319AF2BBA
:10164600720876068039FA00F217F617A1017208B9
:10165600F8007108FC007008FD007408FD027508AA
:10166600031C750FFC027608031C760FF802F801BE
:10167600FC01FD01031C462B0310F20CF10CF00CCF
:10168600F80C0130A1007708F302031C502B7E30C2
:101696002107F3070318B42B552B7E302107F307D8
:1016A600031CB92B1830FA07FD0DFC0DF80DF00DD3
:1016B600F10DF20DA10D7408F0027508031C750FEB
:1016C600F1027608031C760FF202760DA104211CA6
:1016D6006E2B7D14792B7408F00775080318750FA7
:1016E600F10776080318760AF2077D10FA031F3011
:1016F6007A05031D572B7B1B7D1CA02B0310F00DB9
:10170600F10DF20DA10D7408F0027508031C750F9A
:10171600F1027608031C760FF202760D21040139D8
:10172600FD070318FC0A0319F80A031DA02BF80C81
:10173600FC0CFD0CF30A0319B42BFA1FF8137808F6
:10174600F2007C08F1007D08F0000030BD2B01306E
:101756008031C2258831BD2B02308031E3228831A9
:10176600BD2B04308031F0208831BD2B083080310C
:08177600EA228831000008009E
:10177E00813022009700171BC52BC22B2A00DA01DD
:10178E008031A125883170082A00D3007108D40059
:10179E008030033AF200803071067202031DD92B9D
:1017AE007008E83C031CE02B5308F0005408F100CD
:1017BE001F2C823022009700171BE62BE32B2A00EA
:1017CE00DA018031A125883170082A00D300710812
:1017DE00D4008030033AF200803071067202031D8D
:1017EE00FA2B7008E83C031C032C5308F000540835
:1017FE00F100F035F10D1F2C833022009700171BDE
:10180E00092C062C2A00DA018031A12588317008B6
:10181E002A00D3007108D4007008F2007108F3009A
:10182E00F235F30DF235F30D7208F0007308F10086
:02183E000800A0
:10184000813022009700171B262C232C01302A0000
:10185000DA008031A125883170082A00D300710890
:10186000D4008030033AF200803071067202031D0A
:101870003B2C7008E83C031C452C2700CB012A00B8
:101880005308F0005408F100982C82302200970091
:10189000171B4B2C482C01302A00DA008031A1257F
:1018A000883170082A00D3007108D4008030033AD0
:1018B000F200803071067202031D602C7008E83C53
:1018C000031C6C2C2700CB012A005308F00054089D
:1018D000F100F035F10D982C833022009700171B92
:1018E000722C6F2C01302A00DA008031A12588315A
:1018F00070082A00D3007108D4008030033AF20047
:10190000803071067202031D872C7008E83C0318B2
:101910008D2C01302700CB008F2C2700CB012A0013
:101920005308F0005408F100F035F10DF035F10DD9
:021930000800AD
:101932007408003A031DB22C7508003A031DB22C3C
:101942007608003A031DB22C7708003A031DB22C28
:10195200FF30F000FF30F100FF30F2007F30F30083
:101962004E2D2000FC01F71BFC0AFD01FB01FA01D0
:10197200F901F80173087204710470040319472D08
:1019820073087706A000A01BFD09F71FD32CF409EA
:10199200F509F609F709F40A0319F50A0319F60A13
:1019A2000319F70AF31FE02CF009F109F209F30910
:1019B200F00A0319F10A0319F20A0319F30A730868
:1019C2007704A000A01B032D8031FC238831FC1B6F
:1019D200202DFD1F472DF009F109F209F309F00A44
:1019E2000319F10A0319F20A0319F30AF809F909AA
:1019F200FA09FB09F80A0319F90A0319FA0A031981
:101A0200FB0A472DF71F1A2DF31B142D7308FB0039
:101A12007208FA007108F9007008F800F301F20187
:101A2200F101F001EA2CF301F201F101F001F00AF7
:101A32000034F309F209F109F009FC17E52CF80A60
:101A42000319F90A0319FA0A0319FB0A740878023E
:101A5200031DEA2C75087902031DEA2C76087A0226
:101A6200031DEA2C77087B02031DEA2CFB01FA0115
:101A7200F901F801F00A0319F10A0319F20A03192C
:101A8200F30AF31FEA2CA0012016FF34A0017C1CEC
:0C1A92004D2D803147238831003E0800B4
:101A9E0020007008F8007108F000F101F201F30166
:101AAE00FB01FC019630F300FA01F01F642DF809DA
:101ABE00F009F80A0319F00AFA177008F10078080D
:0E1ACE00F000F801F20180311F268831080077
:101ADC00A0302A00D5000F30D600D701D801A03095
:101AEC00F0000F30F1000030F2000030F30053082A
:101AFC00F4005408F500F601F7018031C623883153
:101B0C0070082A00D5007108D6007208D700730837
:101B1C00D80000307302031D9D2D00307202031D8E
:101B2C009D2D02307102031D9D2DB23070020318E1
:101B3C00A02DCF2DB230D5020230D63B0030D73B92
:101B4C00D83B0530F00070080319B22DD836D70CED
:101B5C00D60CD50CFF3EAA2D5508F0005608F10006
:101B6C005708F2005808F3000130D5020030D63B7C
:101B7C00D73BD83B70087104720473040319CF2D42
:101B8C000000000000000000000000000000000049
:041B9C00B22D08005E
:101BA00080313E20883129004D082B00A300803170
:101BB0000320883180302B00A3008031032088313E
:101BC0002A0053082B00A300803103208831803184
:061BD000D320883108005B
:101BD6008030F00080302A0054067002031DF52D77
:101BE6005308503C031CFA2DF001F101CD2E803034
:101BF600F000803054067002031D032E5308AB3CE0
:101C0600031C0A2EF430D3070030D43DC92E803091
:101C1600013AF000803054067002031D142E53085A
:101C2600483C031C1B2EFE30D3070030D43DC92E82
:101C36008030023AF000803054067002031D252ED3
:101C46005308463C031C2C2E1830D3070130D43DD4
:101C5600C92E8030033AF000803054067002031D0E
:101C6600362E5308343C031C3D2E2930D307013051
:101C7600D43DC92E8030043AF000803054067002FC
:101C8600031D472E53084C3C031C4E2E3630D307FB
:101C96000130D43DC92E8030083AF0008030540619
:101CA6007002031D582E5308853C031C5F2EAE3070
:101CB600D3070130D43DC92E80300C3AF000803075
:101CC60054067002031D692E5308FA3C031C702E3D
:101CD600E430D3070130D43DC92E8030123AF000EB
:101CE600803054067002031D7A2E53080F3C031CE5
:101CF600812E1230D3070230D43DC92E8030163AD9
:101D0600F000803054067002031D8B2E5308E63C0B
:101D1600031C922E8830D3070230D43DC92E803062
:101D26001B3AF000803054067002031D9C2E5308A7
:101D3600EA3C031CA32EE730D3070230D43DC92E5C
:101D46008030213AF000803054067002031DAD2E1B
:101D56005308363C031CB42E2030D3070330D43D41
:101D6600C92E8030293AF000803054067002031DD7
:101D7600BE2E5308043C031CC52E4830D30703303F
:101D8600D43DC92E5C30D3070330D43D5308F00050
:061D96005408F1000800F2
:101D9C002000FA017308031D7A147708031DFA1446
:101DAC007A080319192F033A0319E42E7A18E12E35
:101DBC00F61F172F152FF21F152F172F72088039AA
:101DCC00FA00F21376088039F6137A060319F22E0C
:101DDC007A080319152F172F770873020319F92E98
:101DEC00031C0D2F112F760872020319002F031CF0
:101DFC000D2F112F750871020319072F031C0D2FBE
:101E0C00112F740870020319192F0318112FFA08D7
:101E1C000319172F152FFA080319152F172F031451
:0E1E2C00080003100800031403150800080046
:101E3A002A003718232F22000E10252F22000E14F5
:101E4A00290062082A00D300290063082A00D40066
:041E5A006E250800E9
:101E5E0026006808003A031D6D2F2A0037183A2F06
:101E6E0022008D113C2F22008D152A00B718422F0B
:101E7E0022000C11442F22000C152A0037194A2F6C
:101E8E0022000D124C2F22000D162A00B719522FC8
:101E9E0022008C11542F22008C152A00371A5A2F2B
:101EAE0022008D125C2F22008D162A00B71A622F87
:101EBE0022008C12642F22008C162A00371B6A2FE8
:101ECE0022000C126C2F22000C16A52F2A00371898
:101EDE00732F22008D15752F22008D112A00B71831
:101EEE007B2F22000C157D2F22000C112A00371992
:101EFE00832F22000D16852F22000D122A00B719EE
:101F0E008B2F22008C158D2F22008C112A00371A50
:101F1E00932F22008D16952F22008D122A00B71AAC
:101F2E009B2F22008C169D2F22008C122A00371B0D
:101F3E00A32F22000C16A52F22000C1229006208D6
:101F4E002A00D300290063082A00D4006E25080059
:101F5E0029005408013C0318B92FAF302A00D300D2
:101F6E00D025CB2F29005408013A031DCB2F013069
:101F7E00D700D6012A00E40180318D2288312A0053
:0A1F8E00E40180318D228831080043
:101F98000D302A00D3000030D400D5011930D60006
:101FA800D7018031FA2688317008B7000D30D30088
:101FB8000030D4000130D5001930D600D701803167
:101FC800FA2688317008B7040D30D3000030D400E9
:101FD8000230D5001930D600D7018031FA26883171
:101FE8003708F0040319FB2F01302600ED00080024
:102000007408003A031D0D287508003A031D0D28B9
:10201000FF30F0007F30F10067282000FD01F9015A
:10202000F801710870040319003471087506FA008C
:10203000FA1BFD09FB01F51F2228F409F509F40A32
:102040000319F50AF11F2928F009F109F00A03190B
:10205000F10A71087504FA00FA1B3E288031352711
:1020600090317B185328FD1F0034F009F109F00A64
:102070000319F10AF809F909F80A0319F90A0034F1
:10208000F51F4F28F11B4B287108F9007008F80064
:10209000F101F0013328F101F001F00A0034F109F7
:1020A000F009FB0A3028F80A0319F90A74087802C3
:1020B000031D332875087902031D3328F901F8013F
:1020C000F00A0319F10AF11F33280000FF34080059
:1020D0002A0037186E2822008E13702822008E17CF
:1020E0002A00B718762822008E11782822008E1533
:1020F0002A0037197E2822000E13802822000E178E
:102100002A00B719862822000E11882822000E15F1
:102110002A00371A8E2822008E12902822008E164E
:102120002A00B71A962822008E10982822008E14B2
:102130002A00371B9E2822000E12A02822000E160D
:10214000290062082A00D300290063082A00D4006D
:0821500088316E259031080072
:1021580000302A00BF000030C0004830C100853080
:10216800C200640020005A08003A0130031D003004
:10217800F1006F08013A0130031D0030F0007008CB
:10218800F10580302A003806F00080307002031D07
:10219800CF280A3037020130031C0030F0007108E4
:1021A800F0050319952926006108003A031D9129B5
:1021B80029006408043A0130031D0030F100640866
:1021C800053A0130031D0030F0007108F0040319CE
:1021D8001E2927004608013A031D012904302A0058
:1021E800DA001030DB005D30DC000030DD00083044
:1021F800DE008031282590310F2904302A00DA00CA
:102208001030DB00A930DC000030DD000830DE00D3
:1022180080312825903106302A00DA001030DB00A2
:10222800A030DC000030DD000830DE0080312825D9
:102238009031912929006408023A0130031D0030C9
:10224800F1006408033A0130031D0030F000710802
:10225800F00403195E2927004608013A031D4229A4
:102268002A00DA010930DB006630DC000030DD00CE
:102278000830DE008031282590314F292A00DA0104
:102288000930DB00D630DC000030DD000830DE002D
:1022980080312825903101302A00DA000930DB002E
:1022A8004F30DC000130DD000830DE0080312825A9
:1022B8009031912929006408013A031D91292700CA
:1022C8004608013A031D76292A00DA010930DB00A5
:1022D8004730DC000130DD000730DE008031282582
:1022E800903183292A00DA010930DB003F30DC0015
:1022F8000130DD000730DE008031282590310130C3
:102308002A00DA000930DB005830DC000130DD003B
:102318000730DE0080312825903101302600E100A9
:102328009F2926006108013A031D9D298831002054
:1023380090312600E10164002A003808260067066B
:10234800031DA92966082A0037060319A02D2A00AB
:1023580037082600E6002A0038082600E70027008C
:102368004608003A031D072A80302A003806F00084
:1023780080307002031DC22964303702031CE32930
:1023880005303707F0000030383DF1007008B7001D
:102398007108B8007008DA007108DB00C530DC008D
:1023A8000430DD0080315323903129004708BE00F6
:1023B8004808BF004908C0005730C100062A2A0053
:1023C8003708DA003808DB00C530DC000430DD00EF
:1023D80080315323903129004908203A0319F729FD
:1023E8004908BE00F9293030BE002E30BF004A0827
:1023F800203A0319022A4A08C000042A3030C000D3
:102408005730C100522A80302A003806F000803048
:10241800033A7002031D122AE73037020318292AEB
:102428003708DA003808DB00C530DC000430DD008E
:1024380080315323903129004808BE004908BF0065
:102448004A08C0005730C100522A8030273AF000AD
:1024580080302A0038067002031D342A37080F3CE2
:1024680003183D2A0F30B7002730B8000130270085
:10247800CB002A003708DA003808DB00C530DC005A
:102488000430DD0080315323903129004708BE0015
:102498004808BF004908C0004A08C1006408043A57
:1024A8000130031D0030F1006408053A0130031DB6
:1024B8000030F0007108F0040319702A2A00DA01CC
:1024C8004030DB00BE30DC000430DD000430DE00CC
:1024D800803128259031822A29006408003A03199E
:1024E800822A2A00DA010430DB00BE30DC00043026
:1024F800DD000430DE00803128259031640026009C
:102508006108013A031DA02D6008003A0130031D3F
:102518000030F1005F08003A0130031D0030F00080
:102528007108F0050319A02A2A0039082900BC00FF
:102538002A003A082900BD0029003C08F0003D089F
:10254800F10088314F25903170082A00CB007108BE
:10255800CC007208CD007308CE000030F4000030C3
:10256800F5004830F6008530F7004B08F0004C08BD
:10257800F1004D08F2004E08F30088310323903132
:1025880070082A00C7007108C8007208C9007308DB
:10259800CA004B08F4004C08F5004D08F6004E0838
:1025A800F7000030F0000030F1004830F2008530CC
:1025B800F3008831032390312A004708F4004808C3
:1025C800F5004908F6004A08F70080315B2690318B
:1025D80070082A00C7007108C8007208C90073088B
:1025E800CA0028006F08F0008031E22790312A00E5
:1025F8004708F4004808F5004908F6004A08F700BB
:102608008031612790310030F4000030F50020302F
:10261800F6008230F7008831032390311F30F40030
:102628008530F5006B30F6007B30F700803161278C
:1026380090310030F4000030F5000030F6007F30B3
:10264800F70080315B2690317008F4007108F500BE
:102658007208F6007308F7000030F0000030F1004F
:102668000030F2007F30F300883103239031700886
:102678002A00CF007108D0007208D1007308D20078
:102688004F08BF005008C0005108C1005208C200DE
:102698003908F0003A08F10088314F259031700868
:1026A8002A00CB007108CC007208CD007308CE0058
:1026B8000030F4000030F5004830F6008530F700AF
:1026C8004B08F0004C08F1004D08F2004E08F300EA
:1026D8008831032390310030F4000030F5000030D9
:1026E800F6008030F70080315B26903170082A00B0
:1026F800C7007108C8007208C9007308CA004B08EF
:10270800F4004C08F5004D08F6004E08F7000030BC
:10271800F0000030F1004830F2008530F3008831D5
:10272800032390312A004708F4004808F5004908B7
:10273800F6004A08F70080315B2690317008F400F3
:102748007108F5007208F6007308F7000030F00011
:102758000030F1000030F2008130F30088310323AB
:10276800903170082A00C3007108C4007208C500BF
:102778007308C6000030F4000030F5000030F600A1
:102788007F30F7004F08F0005008F1005108F200C0
:102798005208F3008831CE2690310130031C0030F6
:1027A800F00070080319E12B00302A00BF00003048
:1027B800C0000030C1007F30C2002A000030F400A1
:1027C8000030F5000030F6007F30F7004308F000D5
:1027D8004408F1004508F2004608F3008831CE2687
:1027E80090310130031C0030F00070080319052CEB
:1027F80000302A00C3000030C4000030C5007F301C
:10280800C6002A003708F0003808F10088314F2543
:1028180090312A003F08F4004008F5004108F6000E
:102828004208F7008031612790312A004308F400FC
:102838004408F5004508F6004608F700803161278E
:1028480090318831A522903170082A00BB007108A8
:10285800BC003F08F0004008F1004108F2004208BF
:10286800F3004308F4004408F5004508F60046085C
:10287800F7008031612790310030F4000030F50016
:102888004830F6008530F700803161279031883173
:10289800A522903170082A00BD007108BE00803062
:1028A8007106F20080307202031D5C2C64307002E5
:1028B800031C622C6330BD000030BE0027004608B0
:1028C800003A031DB62C80302A003C06F000803008
:1028D8007002031D712C64303B02031C922C0530DE
:1028E8003B07F00000303C3DF1007008BB00710868
:1028F800BC007008DA007108DB00C530DC00043069
:10290800DD0080315323903129004708BE00480874
:10291800BF004908C0005730C100B52C2A003B0849
:10292800DA003C08DB00C530DC000430DD00803113
:102938005323903129004908203A0319A62C490845
:10294800BE00A82C3030BE002E30BF004A08203A06
:102958000319B12C4A08C000B32C3030C0005730DE
:10296800C100ED2C80302A003C06F0008030033A8C
:102978007002031DC12CE7303B020318D82C3B081A
:10298800DA003C08DB00C530DC000430DD008031B3
:102998005323903129004808BE004908BF004A085F
:1029A800C0005730C100ED2C2A003B08DA003C0873
:1029B800DB00C530DC000430DD008031532390316A
:1029C80029004708BE004808BF004908C0004A0857
:1029D800C1006408043A0130031D0030F1006408A6
:1029E800053A0130031D0030F0007108F0040319A6
:1029F8000C2D04302A00DA004030DB00BE30DC0049
:102A08000430DD000430DE008031282590313D2D72
:102A180029006408023A0130031D0030F1006408FF
:102A2800033A0130031D0030F0007108F004031967
:102A38002B2D2A00DA010D30DB00BE30DC0004301B
:102A4800DD000430DE008031282590313D2D29003D
:102A58006408003A03193D2D2A00DA010C30DB0026
:102A6800BE30DC000430DD000430DE008031282573
:102A780090312A003D08DA003E08DB00C530DC0052
:102A88000430DD0080315323903129004908BE000D
:102A98004A08BF006408043A0130031D0030F10001
:102AA8006408053A0130031D0030F0007108F00495
:102AB80003196D2D06302A00DA004C30DB00BE30D9
:102AC800DC000430DD000230DE0080312825903142
:102AD800A02D29006408023A0130031D0030F100DE
:102AE8006408033A0130031D0030F0007108F00457
:102AF80003198D2D01302A00DA000E30DB00BE30BC
:102B0800DC000430DD000230DE0080312825903101
:102B1800A02D29006408013A031DA02D01302A00C8
:102B2800DA000D30DB00BE30DC000430DD0002309E
:0C2B3800DE008031282590316400080088
:102B440064002A00380826006406031DAC2D6308BF
:102B54002A0037060319492E2A0037082600E30005
:102B64002A0038082600E40000302A003806031D35
:102B7400BD2D00303706031DFC2D29006408043ADE
:102B84000130031D0030F1006408053A0130031DD3
:102B94000030F0007108F0040319DF2D02302A0020
:102BA400DA004030DB00E530DC000030DD000430CA
:102BB400DE00803128259031F82D29006408003A80
:102BC4000319F32D01302A00DA000430DB00E03071
:102BD400DC000030DD000430DE0080312825903137
:102BE400F82D29006408003A031DF82D2600E3019E
:102BF400E401492E2A003708DA003808DB00C53022
:102C0400DC000430DD008031532390312900480872
:102C1400BE002E30BF004908C0004A08C100640845
:102C2400043A0130031D0030F1006408053A013014
:102C3400031D0030F0007108F0040319302E023037
:102C44002A00DA004030DB00BE30DC000430DD0056
:102C54000430DE00803128259031492E2900640893
:102C6400003A0319442E01302A00DA000430DB0054
:102C7400BE30DC000430DD000430DE008031282565
:102C84009031492E29006408003A031D492E64003E
:022C9400080036
:102C960064008831202490317008B7007108B800AC
:102CA6000030B81BFF30B900BA008831BF2390311D
:102CB6007008BB007108BC000030BC1BFF30BD00B3
:102CC600BE0028006908013A031D8A2E2A0037082B
:102CD600F0003808F1000330F4000030F5008831C8
:102CE6007B22903170082A00D3007108D400883105
:102CF600EB25903188314F25903170082A00BF00AE
:102D06007108C0007208C1007308C200A72E2A000D
:102D16003708F0003808F1003908F2003A08F300E5
:102D26000330F400F501F601F7018031C623903136
:102D36008031C127903170082A00BF007108C00099
:102D46007208C1007308C20080303E06F000803071
:102D56003A067002031DB92E39083D02031DB92E2D
:102D660038083C02031DB92E37083B02031CC22E4D
:102D7600E730B7000330B800B901BA010C2F3B08A1
:102D86003707F0003C08383DF1003D08393DF200B8
:102D96003E083A3DF3006430F400F501F601F70110
:102DA6008031C62390312A003708F4003808F50030
:102DB6003908F6003A08F7003B08F4023C08F53BF0
:102DC6003D08F63B3E08F73B883199249031700860
:102DD6002A00B7007108B8007208B9007308BA0073
:102DE6008030F400803073067402031D042F7208CD
:102DF600003C031D042F7108033C031D042F7008BB
:102E0600E73C03180C2FE730B7000330B800B901D0
:102E1600BA0128006A08F0008031E22790312A00C2
:102E26003F08F4004008F5004108F6004208F700A4
:102E36008031612790310030F4000030F5007A309F
:102E4600F6008830F70088310323903170082A0095
:102E5600BF007108C0007208C1007308C200F430D8
:102E6600F400FD30F5003430F6007F30F70088318D
:102E76000323903170082A00BF007108C000720851
:102E8600C1007308C20027004608013A031D742FCB
:102E96002A003F08F0004008F1004108F20042080D
:102EA600F3003F08F4004008F5004108F600420828
:102EB600F7008031612790310030F4000030F500D2
:102EC6004830F6008430F7008831032390317008CB
:102ED6002A00BF007108C0007208C1007308C20052
:102EE6009C2F2A003F08F0004008F1004108F2003C
:102EF6004208F3003F08F4004008F5004108F600D8
:102F06004208F7008031612790310030F40000302C
:102F1600F5002030F6008130F70088310323903128
:102F260070082A00BF007108C0007208C10073084B
:102F3600C2003F08F0004008F1004108F2004208D4
:102F4600F3000030F4000030F5000030F6007E306B
:102F5600F70080315B26903170082A00BF007108A7
:102F6600C0007208C1007308C2008831A5229031E2
:102F760070082900E0007108E10080302A003A0656
:102F8600F00080307002031DD22F00303902031D7D
:102F9600D22F00303802031DD22F643037020318B7
:102FA600DA2FE7302900DE000330DF00E22F2A00A7
:102FB60037082900DE002A0038082900DF0008004B
:102FC6002600E001DF012A00B70188312F27903162
:102FD60026005F082A00B7006820290062082A0038
:102FE600D300290063082A00D40088316E25903169
:022FF6000800D1
:103000002A00B501B6016430290066022A00B0002A
:1030100000302900673B2A00B1002900E001E101EE
:10302000640027004708003A0130031D0030F1001A
:103030004A08013A0130031D0030F0007108F00524
:103040000319662890314B26983180306106F000D4
:1030500080307002031D2E280A306002031C652890
:10306000260060082A00B70088312F2798312600F3
:103070005F082A00B7009031682098312600620866
:103080002A00B70088311D27983101302700C7007A
:103090008831AF27983126006F08F0008031E22791
:1030A000983126006908F4006A08F5006B08F600FC
:1030B0006C08F7008031612798318831A52298315A
:1030C00070082700C8007108C9001E2C78302A003B
:1030D000B200AF0132082F020318CF2820008D184C
:1030E00073287614742876100D197828031479281B
:1030F000031076187F2803187F28F6108028F6140E
:1031000020000D188528031486280310031C8D2821
:103110002900651C8D2876148E287610F6189428C0
:1031200076189428031095280314031CA1288831CD
:10313000CC27983126006D08013A031DA128ED0126
:103140001E2C90314B26983180302A003606F00034
:103150008030290061067002031DB12860082A0032
:1031600035020318C328290060082A00B500290089
:1031700061082A00B60029005E082A00B300290071
:103180005F082A00B4001030FC009430FD002A00D3
:10319000FD0BC728FC0BC7280000AF0A6A28640093
:1031A00080303606F00080307002031DD92864306C
:1031B0003502031CF92805303507F0000030363D94
:1031C000F1000A30F4000030F50090310020983111
:1031D00070082A00B5007108B6000A30F40000300B
:1031E000F50088317B22983170082A00B5007108FB
:1031F000B60035082700C4002A0036082700C5009D
:1032000080302A003606F00080307002031D0A2943
:103210000A30350203180E29B301B4013308B70090
:103220003408B8009031A225983180302700450637
:10323000F00080307002031D1F290A304402031C75
:10324000632926006F08003C03183F296F08F0002F
:103250008031E227983126006908F4006A08F500F9
:103260006B08F6006C08F7008031612798318831CF
:10327000A522983170082700C8007108C9002700EE
:103280004708003A031D63294A08013A031D5D29D6
:10329000260060082A00B70088312F2798312600C1
:1032A0005F082A00B7009031682098312600620834
:1032B0002A00B70088311D27983101302700C70048
:1032C0008831AF27983180302A003406F0008030F2
:1032D000290067067002031D702966082A00330260
:1032E0000130031C0030F000700826006505F50071
:1032F00080305E06F30080302A0034067302031D1E
:103300008429330826005D022600013003180030AE
:10331000F3005D082A003302F10026005E082A004F
:10332000343BF20080303106F000803072067002CB
:10333000031D9C2971083002013003180030F00091
:1033400070087305F40080303406F30080302600E6
:103350005E067302031DAF295D082A0033022A00AE
:10336000013003180030F300330826005D02F1003D
:103370002A00340826005E3BF20080302A00310625
:10338000F000803072067002031DC82971083002F7
:10339000013003180030F0007308F0057008740461
:1033A000F10026005E08033A031DD829E7305D06C8
:1033B0000130031D0030F0007108F0047508F005BD
:1033C0000319E4290130EE0020008D18E929761454
:1033D000EA2976100D19EE290314EF290310761847
:1033E000F5290318F529F610F629F61420000D1812
:1033F000FB290314FC290310031C032A2900651C64
:10340000032A7614042A7610F6180A2A76180A2A4D
:1034100003100B2A0314031C172A8831CC27983178
:1034200026006D08013A031D172AED011E2C270006
:1034300044082A00B700270045082A00B8003308CE
:10344000B9003408BA009031AC20983120008D18B2
:103450002B2A76142C2A76100D19302A0314312ABF
:1034600003107618372A0318372AF610382AF6146C
:1034700020000D183D2A03143E2A0310031C452A80
:103480002900651C452A7614462A7610F6184C2A1F
:1034900076184C2A03104D2A0314031C592A88312C
:1034A000CC27983126006D08013A031D592AED01F9
:1034B0001E2C640027004B08013A031D1E2C290016
:1034C0006408043A0130031D0030F1006408053A35
:1034D0000130031D0030F0007108F0040319422B85
:1034E00002302A00DA001030DB003B30DC00043010
:1034F000DD000830DE008031282598310330FB00E4
:103500000830FC007730FD00FD0B842AFC0B842A78
:10351000FB0B842A02302A00DA001030DB00323044
:10352000DC000430DD000830DE00803128259831D1
:103530000B30FB002630FC005D30FD00FD0B9E2AA9
:10354000FC0B9E2AFB0B9E2A000000006400023048
:103550002A00DA001030DB004430DC000430DD00EB
:103560000830DE008031282598310730FB00173005
:10357000FC006A30FD00FD0BBB2AFC0BBB2AFB0BD9
:10358000BB2A0000640002302A00DA001030DB00A1
:103590005630DC000430DD000830DE0080312825A4
:1035A00098310B30FB002630FC005D30FD00FD0B38
:1035B000D72AFC0BD72AFB0BD72A00000000640097
:1035C00002302A00DA001030DB004D30DC0004301D
:1035D000DD000830DE008031282598310730FB00FF
:1035E0001730FC006A30FD00FD0BF42AFC0BF42AB6
:1035F000FB0BF42A0000640002302A00DA001030CD
:10360000DB002930DC000430DD000830DE008031D2
:10361000282598310B30FB002630FC005D30FD0082
:10362000FD0B102BFC0B102BFB0B102B00000000D4
:10363000640002302A00DA001030DB00D530DC00F4
:103640000330DD000830DE0080312825983103305A
:10365000FB000830FC007730FD00FD0B2D2BFC0B30
:103660002D2BFB0B2D2B02302A00DA001030DB0053
:10367000CC30DC000330DD000830DE00803128254E
:103680009831102C29006408003A0319102C0130DD
:103690002A00DA00DB01DE30DC000330DD00083018
:1036A000DE008031282598310330FB000830FC0013
:1036B0007730FD00FD0B5A2BFC0B5A2BFB0B5A2BC2
:1036C00001302A00DA00DB012030DC000430DD00AC
:1036D0000830DE008031282598310B30FB00263081
:1036E000FC005D30FD00FD0B732BFC0B732BFB0B03
:1036F000732B00000000640001302A00DA00DB01B7
:10370000E730DC000330DD000830DE0080312825A2
:1037100098310730FB001730FC006A30FD00FD0BCC
:103720008F2BFC0B8F2BFB0B8F2B000064000130C9
:103730002A00DA00DB015130DC000330DD00083004
:10374000DE008031282598310B30FB002630FC004C
:103750005D30FD00FD0BAA2BFC0BAA2BFB0BAA2B4B
:1037600000000000640001302A00DA00DB01C430F0
:10377000DC000030DD000830DE0080312825983183
:103780000730FB001730FC006A30FD00FD0BC62B34
:10379000FC0BC62BFB0BC62B0000640001302A007B
:1037A000DA00DB01BB30DC000030DD000830DE0079
:1037B0008031282598310B30FB002630FC005D302D
:1037C000FD00FD0BE12BFC0BE12BFB0BE12B0000C3
:1037D0000000640001302A00DA00DB01B230DC00B6
:1037E0000030DD000830DE008031282598310330BC
:1037F000FB000830FC007730FD00FD0BFD2BFC0BBF
:10380000FD2BFB0BFD2B01302A00DA00DB01CD3054
:10381000DC000030DD000830DE00803128259831E2
:10382000640010302600E3002730E4002A0033084B
:0E383000B7003408B8009031A2259831080086
:10383E002A002F082300910092012A00300823004D
:10384E0093001513951315150B08F0008B135530B7
:10385E009600AA3096009514F01B372C8B13382C3B
:0C386E008B171511951C3C2C392C080000
:10387A002A00AD01AE019031E327983101302600CC
:10388A00E20001302A00B70088311D279831FF3045
:10389A00AF00B0011F24FE302A00AF00B0011F2480
:1038AA00FD302A00AF000130B0001F24FC302A008E
:1038BA00AF00B0011F24FB302A00AF00B0011F2463
:1038CA008831002098312600E10122008C130C1760
:1038DA002900DE01DF01E001E1012600DD01DE0150
:1038EA0029006408043A0130031D0030F10064081D
:1038FA00053A0130031D0030F0007108F004031985
:10390A00B32C02302A00DA001030DB00A030DC00D1
:10391A000330DD000830DE0080312825983164004C
:10392A000D30FB002D30FC00D730FD00FD0B9B2C29
:10393A00FC0B9B2CFB0B9B2C0000000002302A0086
:10394A00DA001030DB00A930DC000330DD0008307B
:10395A00DE008031282598316400442D290064084E
:10396A00003A0319E32C01302A00DA00DB01BB30EC
:10397A00DC000330DD000830DE0080312825983174
:10398A0064000D30FB002D30FC00D730FD00FD0B2C
:10399A00CC2CFC0BCC2CFB0BCC2C000000000130F7
:1039AA002A00DA00DB01B230DC000330DD00083027
:1039BA00DE008031282598316400442D29006408EE
:1039CA00003A031D412D22000D170230FB0004307E
:1039DA00FC00BA30FD00FD0BF02CFC0BF02CFB0BAD
:1039EA00F02C00002A00AD01AE0180302E06F00056
:1039FA0080307002031D032D0C302D020318292D6F
:103A0A0022008D1764000230FB000430FC00BA303B
:103A1A00FD00FD0B0E2DFC0B0E2DFB0B0E2D0000D9
:103A2A008D1364000230FB000430FC00BA30FD0044
:103A3A00FD0B1D2DFC0B1D2DFB0B1D2D00002A005F
:103A4A00AD0A0319AE0AFA2C22000D130430FB004A
:103A5A000C30FC003330FD00FD0B312DFC0B312DF9
:103A6A00FB0B312D000000002600650803193F2DCD
:103A7A0022008D176400442D22000D178D17103077
:103A8A002600E3002730E4001030E6002730E70084
:043A9A000020080000
:103A9E0090314B26983126005B08643A03196A2D43
:103AAE00DB0A803029005906F00080306106700272
:103ABE00031D632D600858020318692D6008D80095
:103ACE006108D900822D2600DB01290058082A0042
:103ADE00B700290059082A00B80029005E082A00FC
:103AEE00B90029005F082A00BA009031AC20983145
:103AFE002900D801D901290080306106F2008030FA
:103B0E005B067202031D8D2D5A08600201300318E8
:103B1E000030F20080305D06F100803061067102E7
:103B2E00031D9B2D60085C02013003180030F1006C
:103B3E008030F00080305D067002031DA82D5C08F9
:103B4E00003C013003180030F0007108F0057208D7
:103B5E00F0040319162E640090314B26983126007E
:103B6E005B08643A0319CE2DDB0A80302900590612
:103B7E00F000803061067002031DC72D60085802E8
:103B8E000318CD2D6008D8006108D900E62D260057
:103B9E00DB01290058082A00B700290059082A001D
:103BAE00B80029005E082A00B90029005F082A0023
:103BBE00BA009031AC2098312900D801D9010D30CE
:103BCE002A00D3000030D400D5010530D6000130D4
:103BDE00D7008031FA26983170080319F92D01307B
:103BEE002600DC0026005C08013A0130031D00307F
:103BFE002A00AC000D30D3000030D400D5010530C2
:103C0E00D600D7018031FA2698312C08F005031919
:103C1E00152E3D242900DE01DF01162E822D08000F
:103C2E0003302A00AB002600DF012A00B7019031D5
:103C3E00682098312B082500EE004F250030290012
:103C4E005F06031D2C2E00305E06031D2F2EDF2E69
:103C5E001430F4000030F5005E08F0005F08F1004B
:103C6E00903100209831700829005E072A00A900C3
:103C7E00710829005F3D2A00AA002B08A8002A001F
:103C8E0028081F3C031CD82E2808F00026005A08CE
:103C9E00F4008031BB20983170082A00B7009031B3
:103CAE00682098314F25003029005F06031D612ED4
:103CBE0000305E06031D642EDF2E80305F06F0009E
:103CCE0080302A002A067002031D702E2908290052
:103CDE005E020318D62E29001430F4000030F500D1
:103CEE005E08F0005F08F1009031002098317008F6
:103CFE0029005E072A00A900710829005F3D2A00ED
:103D0E00AA002808F00026005A08F4008031BB20D3
:103D1E00983170082600DF002A002B082500EE00DF
:103D2E00803029005F06F00080307002031DA12E46
:103D3E0078305E020318A42ED82E2A002B082807EE
:103D4E00F2007208A80025006F08003A0130031D2A
:103D5E000030F1007208093A0130031D0030F00006
:103D6E007108F0050319BF2E08302A00A800D52EC1
:103D7E0025006F08003A0130031D0030F1002A00C3
:103D8E002808113A0130031D0030F0007108F005CB
:103D9E000319D52E1030A8000430AB00D72ED82E24
:103DAE00462E26005F082A00B70090316820983111
:023DBE000800FB
:103DC00024006E08F0006F08F4008031BB209831A9
:103DD00070082A00A200700826006007F40074082A
:103DE0002A00A4000530F20024006F08F000F10161
:103DF00072080319FF2EF035F10DFF3EF92E013048
:103E00007002F2000030713BF30080307306F00066
:103E100080307002031D0E2F7408720203181C2FCD
:103E20000530F0006F082A00A400700803191B2F4A
:103E3000A435FF3E162FA403260060082A002202A4
:103E40000318282F2208260060022A00A500292F27
:103E5000A50125082600E0002A002508B7008831C2
:103E60002F2798314F25003029005F06031D3A2F78
:103E700000305E06031D3D2FC52F5E082A00A600F8
:103E800029005F082A00A70024006F082A002507E0
:103E9000A30023082402031CBE2F2308B700883187
:103EA0002F2798314F25003029005F06031D5A2F18
:103EB00000305E06031D5D2FC52F80305F06F000C9
:103EC00080302A0027067002031D692F260829006A
:103ED0005E02031C762F3430FC00F130FD00FD0B38
:103EE0006F2FFC0B6F2F000000004F258030290042
:103EF0005F06F00080302A0027067002031D832F22
:103F0000260829005E02031C902F3430FC00F1309B
:103F1000FD00FD0B892FFC0B892F000000004F25B1
:103F2000803029005F06F00080302A0027067002EA
:103F3000031D9D2F260829005E020318B82F2900B3
:103F40005E082A00A60029005F082A00A7002308AF
:103F50002600E000803029005F06F000803070020B
:103F6000031DB42F78305E020318B72FBE2FB92F70
:103F7000BE2F24006F082A00A307492F26006008DF
:0C3F80002A00B70088312F279831080074
:103F8C002000F8010830FC00700DF80D7408F802E0
:103F9C000318D22FF8070310F00DFC0BCA2F0800E2
:103FAC0029006A08F000F036F036F036F0360A30A8
:103FBC00F4008031BB2098310F3029006A05F100E4
:063FCC007108F007080077
:103FD20029006A0823009100920195131513151404
:063FE2001308F0000800C6
:103FE80012001E00F003031DF42FF103031DF42F2C
:023FF8000800BF
:1040000025006E08F00026005A08F4008031BB201D
:10401000A03170082A00A200700826005F07F40093
:1040200074082A00A4000530F20026005A08F000A7
:10403000F101720803192028F035F10DFF3E1A280E
:1040400001307002F2000030713BF30080307306E3
:10405000F00080307002031D2F28740872020318CC
:104060003D280530F0005A082A00A4007008031902
:104070003C28A435FF3E3728A40326005F082A0009
:10408000220203184928220826005F022A00A50000
:104090004A28A50125082600DF002A002508B700C8
:1040A00090316820A03198314F25A031003029008F
:1040B0005F06031D5D2800305E06031D6028EE28A4
:1040C0005E082A00A60029005F082A00A700260033
:1040D0005A082A002507A30023082402031CE72806
:1040E0002308B70090316820A03198314F25A031C6
:1040F000003029005F06031D7F2800305E06031D87
:104100008228EE2880305F06F00080302A002706E3
:104110007002031D8E28260829005E02031C9D28BC
:104120003430FC00F130FD00FD0B9428FC0B94288A
:104130000000000098314F25A031803029005F0633
:10414000F00080302A0027067002031DAA282608E6
:1041500029005E02031CB9283430FC00F130FD0058
:10416000FD0BB028FC0BB0280000000098314F2553
:10417000A031803029005F06F00080302A00270639
:104180007002031DC628260829005E020318E128D4
:1041900029005E082A00A60029005F082A00A7005F
:1041A00023082600DF00803029005F06F000803001
:1041B0007002031DDD2878305E020318E028E7282E
:1041C000E228E72826005A082A00A3076C282600C0
:0E41D0005F082A00B70090316820A031080077
:1041DE0003302A00A700A30127082400EE000330B5
:1041EE002A00A4001430F4000030F50029005E0807
:1041FE00F0005F08F10090310020A0317008290016
:10420E005E072A00A500710829005F3D2A00A6005E
:10421E00A2012A0022081F3C031CAD292208F0002F
:10422E0024006F08F4008031BB20A03170082A00F2
:10423E00B70088312F27A03198311726A031983139
:10424E004F25A031003029005F06031D30290030B4
:10425E005E06031D3329CB2980305F06F0008030C7
:10426E002A0026067002031D3F29250829005E023A
:10427E000318AB2929001430F4000030F5005E0855
:10428E00F0005F08F10090310020A0317008290085
:10429E005E072A00A500710829005F3D2A00A600CE
:1042AE002208F00024006F08F4008031BB20A031FA
:1042BE0070082600E0005F082A00A30027082400EB
:1042CE00EE0025006E082A00A400803029005F064B
:1042DE00F00080307002031D762978305E020318DC
:1042EE007929AD292A0027082207F2007208A200B8
:1042FE0025006D08003A0130031D0030F1007208F0
:10430E00093A0130031D0030F0007108F005031961
:10431E00942908302A00A200AA2925006D08003A27
:10432E000130031D0030F1002A002208113A01303D
:10433E00031D0030F0007108F0050319AA29103092
:10434E00A2000430A700AC29AD2910292A002308A9
:10435E002600DF0060082A00B70088312F27A03121
:10436E0026005F082A00B70090316820A03124088B
:10437E002500EE003430FC00F130FD00FD0BC529A8
:0A438E00FC0BC52900000000080028
:1043980029005E08EC005F08ED00EF2000302900DE
:1043A8005F06031DD92900305E06031DDF29903101
:1043B800E327A031342B98314F25A03180302900D4
:1043C8005F06F00080307002031DEC2978305E0231
:1043D8000318EF29342B9831E026A031003029004A
:1043E8005F06031DF92900305E06031DFF29903181
:1043F800E327A031342B98314F25A0318030290094
:104408005F06F00080307002031D0C2A78305E02CF
:1044180003180F2A342B0020003029005F06031DE3
:10442800172A00305E06031D1D2A9031E327A031AC
:10443800342B98314F25A031803029005F06F000D9
:1044480080307002031D2A2A78305E0203182D2A54
:10445800342B80305F06F10080307102031D362A4C
:10446800C8305E02013003180030F10080305F066A
:10447800F00080306D067002031D442A6C085E024D
:10448800013003180030F00070087105F3005E0871
:104498006C02F1005F086D3BF2008030F000803064
:1044A80072067002031D5A2A7108643C0130031811
:1044B8000030F0007308F0050319632A342B5E08F6
:1044C800EC005F08ED00260060082900EE00EF010F
:1044D80026005F082A00A000A10126006208013A10
:1044E800031D782AE2017A2A0130E2009031E3279D
:1044F800A031260062082A00B70088311D27A031A4
:104508000230FB000430FC00BA30FD00FD0B8A2AA3
:10451800FC0B8A2AFB0B8A2A000098314F25A03110
:10452800803029005F06F00080307002031D9E2A4B
:1045380078305E020318A12A342BEF2000302900BE
:104548005F06031DA92A00305E06031DAF2A9031BD
:10455800E327A031342B98314F25A0318030290032
:104568005F06F00080307002031DBC2A78305E02BE
:104578000318BF2A342B9831E026A03100302900D7
:104588005F06031DC92A00305E06031DCF2A90313D
:10459800E327A031342B98314F25A03180302900F2
:1045A8005F06F00080307002031DDC2A78305E025E
:1045B8000318DF2A342B0020003029005F06031D72
:1045C800E72A00305E06031DED2A9031E327A0316B
:1045D800342B98314F25A031803029005F06F00038
:1045E80080307002031DFA2A78305E020318FD2A13
:1045F800342B80306D06F00080305F067002031D9A
:10460800072B5E086C020318332B26006208013A58
:10461800031D102BE201122B0130E20062082A0070
:10462800B70088311D27A03129006E082600E00058
:104638002A0020082600DF0029006E082A00B7009B
:1046480088312F27A03126005F082A00B700903153
:104658006820A03129006C08DE006D08DF006400C6
:02466800080048
:10466A0064002600DB012900D801D9012600DC01FB
:10467A0098314F25A031803029005F06F000803044
:10468A007002031D4A2B6E305E0203184D2B212C3B
:10469A009031E327A03120006F08003A031D582B00
:1046AA0088310020A0310230FB000430FC00BA300F
:1046BA00FD00FD0B5E2BFC0B5E2BFB0B5E2B000043
:1046CA0098314F25A03129005E08BC005F08BD0063
:1046DA0080305F06F00080307002031D762B6E304A
:1046EA005E020318792B212C8030F10080303B06C2
:1046FA007102031D822B3A086E3C01300318003008
:10470A00F10080303B06F00080305F067002031D26
:10471A00902B5E083A02013003180030F00071084D
:10472A00F0050319992B212CCC21003029005F06B2
:10473A00031DA12B00305E06031DA72B9031E32732
:10474A00A031212C803029005F06F00080307002F1
:10475A00031DB12B78305E020318B42B212C2000E4
:10476A005C08053A0130031D0030F1005B08053A88
:10477A000130031D0030F0007108F0050319C62B43
:10478A00212C5B08053C0318D22B24006F08EE008D
:10479A000130EF009831E026A031803029005F0611
:1047AA00F00080307002031DDC2B78305E020318A3
:1047BA00DF2B212C20005C08053C0318EC2B26007B
:1047CA005A082500EE0001302600DA0000202000F9
:1047DA005B08053A031DF52B01302400EF00062C77
:1047EA0020005B08063A031DFE2B02302400EF006E
:1047FA00062C20005B08073A031D062C043024000F
:10480A00EF0020005C08053A031D0F2C013026003A
:10481A00DA00202C20005C08063A031D182C02300E
:10482A002600DA00202C20005C08073A031D202C01
:0A483A0004302600DA0064000800D4
:1048440080313E20A03129004D082B00A300803187
:104854000320A0312B00A30180310320A031AE300E
:104864002B00A30080310320A03129005408023A10
:104874000130031D0030F1005408033A0130031DD8
:104884000030F0007108F0040319FE2CD5302B0021
:10489400A30080310320A03180302B00A30080319D
:1048A4000320A031A8302B00A30080310320A031C5
:1048B4003F302B00A30080310320A031D3302B00E4
:1048C400A30080310320A03129005408023A031DBB
:1048D400722C4C082B00A30080310320A0317A2CC9
:1048E40029004C081F3E2B00A30080310320A03177
:1048F40040302B00A30080310320A0318D302B00E9
:10490400A30080310320A03114302B00A300803198
:104914000320A03181302B00A30080310320A0317B
:10492400B4302B00A30080310320A031D9302B00F8
:10493400A30080310320A03122302B00A30080315A
:104944000320A03120302B00A30080310320A031AC
:1049540002302B00A30080310320A03121302B0032
:10496400A30080310320A0312B00A3018031032058
:10497400A0317F302B00A30080310320A0312E30E2
:104984002B00A30080310320A03129005408023AEF
:10499400031DD92CA0302B00A30080310320A031AB
:1049A400C0302B00A30080310320A031E52CA130BE
:1049B4002B00A30080310320A031C8302B00A300BA
:1049C40080310320A031DA302B00A3008031032092
:1049D400A03102302B00A30080310320A031DB3052
:1049E4002B00A30080310320A03140302B00A30012
:1049F40080310320A031A62DD5302B00A3008031B7
:104A04000320A03180302B00A30080310320A0318B
:104A1400A8302B00A30080310320A0313F302B00AD
:104A2400A30080310320A031D3302B00A3008031B8
:104A34000320A03129004C082B00A300803103205F
:104A4400A03140302B00A30080310320A0318D30F1
:104A54002B00A30080310320A03114302B00A300CD
:104A640080310320A03181302B00A300803103204A
:104A7400A031FF302B00A30080310320A031D930B6
:104A84002B00A30080310320A031F1302B00A300C0
:104A940080310320A03120302B00A300803103207B
:104AA400A03102302B00A30080310320A03121303B
:104AB4002B00A30080310320A0312B00A3018031FF
:104AC4000320A0317F302B00A30080310320A031CC
:104AD4002E302B00A30080310320A031290054087C
:104AE400043A031D822DA0302B00A3008031032043
:104AF400A031C0302B00A30080310320A0318E2DC3
:104B0400A1302B00A30080310320A031C8302B003A
:104B1400A30080310320A031DA302B00A3008031C0
:104B24000320A03112302B00A30080310320A031D8
:104B3400DB302B00A30080310320A03140302B0058
:104B4400A30080310320A031A4302B00A3008031C6
:104B54000320A031A6302B00A30080310320A03114
:104B64008031D320A0310330FB000830FC007730C3
:104B7400FD00FD0BBB2DFC0BBB2DFB0BBB2D8031B6
:104B84003E20A03129004D082B00A30080310320D2
:104B9400A03140302B00A30080310320A031290034
:104BA4005408023A0130031D0030F1005408033A5E
:104BB4000130031D0030F0007108F0040319002EC9
:104BC400EB016B08033C031CFF2D6B082A00EE006D
:104BD400EF0180315D20A0312900EA0129008030F5
:104BE4006A020318FC2DEA0A2B00A301803103207A
:104BF400A031F02D2900EB0AE32D1D2EEB016B08EB
:104C0400073C031C1D2E6B082A00EE00EF018031C7
:104C14005D20A0312900EA01290080306A020318CE
:104C24001A2EEA0A2B00A30180310320A0310E2E94
:104C34002900EB0A012E8031D320A031AF302A00A5
:0A4C4400D3008831D025A03108000C
:104C4E00640029006408043A0130031D0030F100AD
:104C5E006408053A0130031D0030F0007108F004BD
:104C6E000319482E02302A00DA004030DB00E8300B
:104C7E00DC000230DD000430DE0080312825A0315A
:104C8E005C2E29006408003A03195C2E01302A00BC
:104C9E00DA000430DB00E330DC000230DD000430EB
:104CAE00DE0080312825A0315C2E352329006408D2
:104CBE00003A031D632E782E26006108003A01305B
:104CCE00031D0030F10020006F08003A0130031D73
:104CDE000030F0007108F0040319782E883100209E
:104CEE00A031FF302A00AF0026005F082A00B00076
:104CFE0098311F24A031FE302A00AF002600600834
:104D0E002A00B00098311F24A031FD302A00AF00D8
:104D1E00260062082A00B00098311F24A031FC3012
:104D2E002A00AF000030F4000130F50029003C08E5
:104D3E00F0003D08F10090310020A03170082A00EB
:104D4E00B00098311F24A031FB302A00AF00003094
:104D5E00F4000130F50029003C08F0003D08F10098
:104D6E0090310020A0317808F0007908F100700829
:104D7E002A00B00098311F24A03110302600E30025
:104D8E002730E4001030E6002730E700983100208D
:104D9E00A03129005E082600DD0029005F082600EC
:0C4DAE00DE0022008C130C1764000800CB
:104DBA0029006408043A0130031D0030F100640838
:104DCA00053A0130031D0030F0007108F0040319A0
:104DDA00FC2E2A00DA010A30DB00A930DC0001309F
:104DEA00DD000930DE0080312825A0310E2F290090
:104DFA006408003A03190E2F2A00DA010330DB0097
:104E0A00C730DC000130DD000930DE0080312825A2
:104E1A00A03164000B30FB002630FC005D30FD0041
:104E2A00FD0B152FFC0B152FFB0B152F0000000097
:104E3A0064000B30FB002630FC005D30FD00FD0BEA
:104E4A00242FFC0B242FFB0B242F000000006400EE
:104E5A000B30FB002630FC005D30FD00FD0B332FCC
:104E6A00FC0B332FFB0B332F0000000064000B30C8
:104E7A00FB002630FC005D30FD00FD0B422FFC0BD1
:104E8A00422FFB0B422F0000000064002900640837
:104E9A00043A0130031D0030F1006408053A01307C
:104EAA00031D0030F0007108F00403196A2F2A006C
:104EBA00DA010A30DB00BD30DC000130DD000930E8
:104ECA00DE0080312825A0317C2F29006408003AB1
:104EDA0003197C2F2A00DA010330DB00B330DC002F
:104EEA000130DD000930DE0080312825A031903103
:104EFA00E327A03101302600E20001302A00B70082
:104F0A0088311D27A031FF30AF0026005F082A0034
:104F1A00B00098311F24A031FE302A00AF002600CD
:104F2A0060082A00B00098311F24A031FD302A0001
:104F3A00AF00260062082A00B00098311F24A03171
:104F4A0029006408043A0130031D0030F1006408A6
:104F5A00053A0130031D0030F0007108F00403190E
:104F6A00C42F2A00DA017030DB006D30DC0001301A
:104F7A00DD000130DE0080312825A031D62F29003E
:104F8A006408003A0319D62F2A00DA010830DB0038
:104F9A00EA30DC000130DD000130DE0080312825F6
:104FAA00A03101302000AB00A8310020A031080058
:104FBA0029005408013C0318E92FAE302A00D30017
:104FCA008831D025A031FA2F29005408013A031D4F
:104FDA00FA2FD701D6012A00E40180318D22A031AF
:0C4FEA002A00E40180318D22A031080073
:10500000640029006408043A0130031D0030F100F7
:105010006408053A0130031D0030F0007108F00407
:105020000319F22820002B08003A031DA4282A00A7
:10503000DA011630DB002030DC000330DD00073001
:10504000DE0080312825A83102302A00DA0006303F
:10505000DB004730DC000330DD000930DE0080314A
:105060002825A83104302A00DA000230DB0038306D
:10507000DC000330DD000E30DE0080312825A83151
:1050800006302A00DA000230DB002830DC00033072
:10509000DD000F30DE0080312825A83164000D309E
:1050A000FB002D30FC00D730FD00FD0B5528FC0B1C
:1050B0005528FB0B55280000000064000B30FB0056
:1050C0002630FC005D30FD00FD0B6428FC0B6428DD
:1050D000FB0B64280000000064002A00DA01103095
:1050E000DB00B430DC000230DD000830DE0080314F
:1050F0002825A83102302A00DA000430DB00A9306C
:10510000DC000230DD000A30DE0080312825A831C5
:1051100004302A00DA001030DB00A030DC0002305E
:10512000DD000830DE0080312825A83106302A0055
:10513000DA000430DB00BD30DC000230DD000A3074
:10514000DE0080312825A8310430FB000C30FC0043
:105150003330FD00FD0BAA28FC0BAA28FB0BAA2864
:105160000000000027004608013A031DC5282A0058
:10517000DA011030DB00DA30DC000230DD0008300C
:10518000DE0080312825A831D2282A00DA0110302B
:10519000DB00D130DC000230DD000830DE00803181
:1051A0002825A83102302A00DA001030DB00C83090
:1051B000DC000230DD000830DE0080312825A83117
:1051C000260065080319F1282A00DA017030DB0097
:1051D000EC30DC000130DD000130DE0080312825BC
:1051E000A831162A29006408003A0319D42920009E
:1051F0002B08003A031D89292A00DA010430DB005C
:105200002030DC000230DD000730DE008031282550
:10521000A83101302A00DA000330DB00E030DC0086
:105220000130DD000930DE0080312825A83164001E
:105230000F30FB003530FC005130FD00FD0B1E2906
:10524000FC0B1E29FB0B1E2964000B30FB002630D3
:10525000FC005D30FD00FD0B2B29FC0B2B29FB0B0B
:105260002B290000000064002A00DA010430DB0072
:10527000D130DC000130DD000E30DE008031282529
:10528000A83101302A00DA000330DB002830DC00CE
:105290000230DD000F30DE0080312825A8316400A7
:1052A0000D30FB002D30FC00D730FD00FD0B5629E2
:1052B000FC0B5629FB0B56290000000064000B3044
:1052C000FB002630FC005D30FD00FD0B6529FC0B6A
:1052D0006529FB0B65290000000064002A00DA0143
:1052E0000430DB004C30DC000230DD000830DE0032
:1052F00080312825A83101302A00DA000330DB0094
:105300004130DC000230DD000A30DE00803128252B
:10531000A8310430FB000C30FC003330FD00FD0BE5
:105320008F29FC0B8F29FB0B8F2900000000270021
:105330004608013A031DA9292A00DA01DB013830A9
:10534000DC000230DD000830DE0080312825A83185
:10535000B5292A00DA01DB01A030DC000130DD00D4
:105360000830DE0080312825A83101302A00DA001B
:10537000DB016430DC000130DD000830DE0080310C
:105380002825A831260065080319D3292A00DA0147
:105390000830DB006230DC000130DD000130DE006F
:1053A00080312825A831162A29006408003A031DF7
:1053B000162A20002B08003A031D022A22000D178E
:1053C0008D1764000D30FB002D30FC00D730FD0040
:1053D000FD0BE829FC0BE829FB0BE8290000000085
:1053E00064000B30FB002630FC005D30FD00FD0B3F
:1053F000F729FC0BF729FB0BF729000000006400DC
:105400000D138D130430FB000C30FC003330FD0015
:10541000FD0B082AFC0B082AFB0B082A00000000E1
:10542000260065080319162A22008D1764008831AA
:065430000020A831080075
:1054360007302900EA009831E927A83170082900C9
:10544600CC000830EA009831E927A8317008290015
:10545600CF005408013C0318342AA0312224A83175
:10546600A72A29005408013A031DA72A0130D700AC
:10547600D60103302A00E40080318D22A8311A308B
:10548600FC00F830FD00FD0B462AFC0B462A000006
:1054960003302A00E40080318D22A8310630FC005A
:1054A6003030FD00FD0B552AFC0B552A0000033059
:1054B6002A00E40080318D22A83102302A00E4005F
:1054C60080318D22A83102302A00E40080318D22FD
:1054D600A83108302A00E40080318D22A8312A0044
:1054E600E40180318D22A83108302A00E4008031A1
:1054F6008D22A8312A00E40180318D22A8310130A5
:105506002A00E40080318D22A8311A30FC00F830E0
:10551600FD00FD0B8C2AFC0B8C2A00002A00E401FE
:1055260080318D22A83106302A00E40080318D2298
:10553600A8312A00E40180318D22A8310C302A00DE
:0A554600E40080318D22A831080036
:105550002900E9016808093C0318CB2A0A30F40045
:105560006808F0009831C627A83170082900E900C2
:105570007008E900E935E935E935E9350A30F40024
:105580006808F0009831C627A8317808F000700844
:105590002900E904CD2A6808E9006908F00008003C
:1055A00028006F082A00DA00DB01C530DC00043077
:1055B000DD0080315323A8310A3028006F02031C1C
:1055C000E52A29004908BE00E82A29003030BE003B
:1055D0002E30BF004A08C0006408043A0130031DA1
:1055E0000030F1006408053A0130031D0030F0007E
:1055F0007108F00403190B2B04302A00DA0006307E
:10560000DB00BE30DC000430DD000330DE00803122
:105610002825A8311D2B29006408003A03191D2BE9
:1056200001302A00DA00DB01BE30DC000430DD008E
:0C5630000330DE0080312825A83108007E
:10563C000D302A00D3000030D400D5013230D60012
:10564C00D7018031FA26A83170080319D62B063001
:10565C00FB001330FC00AD30FD00FD0B332BFC0BBD
:10566C00332BFB0B332B00000000640020000D1CBF
:10567C00522B26006208003A031D472B0130E20032
:10568C00482BE20162082A00B70088311D27A83197
:10569C0088310020A831C22B28006708013A031D6D
:1056AC00592BE7015B2B0130E7006708013A031D1A
:1056BC00912B29006408043A0130031D0030F100DD
:1056CC006408053A0130031D0030F0007108F00445
:1056DC0003197E2B2A00DA017030DB006130DC000C
:1056EC000430DD000130DE0080312825A831902BFC
:1056FC0029006408003A0319902B2A00DA010830BB
:10570C00DB005F30DC000430DD000130DE00803176
:10571C002825A831C22B29006408043A0130031D46
:10572C000030F1006408053A0130031D0030F00030
:10573C007108F0040319B02B2A00DA017030DB0079
:10574C006530DC000430DD000130DE0080312825BE
:10575C00A831C22B29006408003A0319C22B2A0075
:10576C00DA010830DB006330DC000430DD0001308E
:10577C00DE0080312825A8310D302A00D3000030FE
:10578C00D400D5013230D600D7018031FA26A831A9
:10579C0070080319D62B98310020A8316400C22B55
:1057AC000D302A00D3000030D4000230D500323046
:1057BC00D600D7018031FA26A831700803195C2C69
:1057CC00640020000D195C2C0530F20024006F08D9
:1057DC00F000F10172080319F72BF035F10DFF3EC3
:1057EC00F12B01307002F2000030713BF30080307D
:1057FC00F000803073067002031D072C720826001F
:10580C006002013003180030F00028006708F00532
:10581C000319192C2600E00A60082A00B700883109
:10582C002F27A8314C2C280067080130031D0030AD
:10583C00F4000530F20024006F08F000F10172084A
:10584C0003192C2CF035F10DFF3E262C0130700283
:10585C00F2000030713BF3008030F00080307306B2
:10586C007002031D3C2C720826005F0201300318E5
:10587C000030F0007408F00503194C2C2600DF0AE8
:10588C005F082A00B70090316820A83188310020C9
:10589C00A83198310020A8319C30FC00D730FD0095
:1058AC00FD0B562CFC0B562C6400E72B0D302A00FC
:1058BC00D3000030D4000130D5003230D600D701EF
:1058CC008031FA26A83128006808003A0130031DFF
:1058DC000030F1007108F0050319B52C64002000AC
:1058EC008D18B52C26006008003C013003180030E0
:1058FC00F00028006708F00503198D2C2600E00342
:10590C0060082A00B70088312F27A831A52C280061
:10591C0067080130031D0030F10026005F08003CD1
:10592C00013003180030F0007108F0050319A52CA4
:10593C00DF035F082A00B70090316820A831883156
:10594C000020A83198310020A8319C30FC00D730C1
:10595C00FD00FD0BAF2CFC0BAF2C6400752C08006C
:10596C0064002100971217169711171597106400F1
:10597C0023008C010C148C148D01220091139313B1
:10598C0078302100990020008C018D018E0140306F
:10599C0022008C008D018E01033021008C00073019
:1059AC008D008E018C130C138031F127A8311E143D
:1059BC009E14951324000D148D140D158B130800D3
:1059CC002900EA019831E927A83170082900CD0097
:1059DC000130EA009831E927A83170082900D40079
:1059EC007008003A031D012D21000D138D132200A8
:1059FC000D178D17072D21000D178D1722000D1374
:045A0C008D130800EE
:106000002900651805287414062874100D302A001C
:10601000D3000030D400D5013230D6000130D70093
:106020008031FA26B031F1017418F10A7108F005D7
:1060300003191C28290065142900651821287414E7
:10604000222874100D302A00D3000030D400D5016E
:106050003230D600D7018031FA26B031F101741800
